:020000040800F2
:10000000884C00205D0200085F14000851130008AE
:100010005D1400088D030008E11C000800000000CA
:100020000000000000000000000000009D0100082A
:10003000C303000800000000F9010008A114000833
:1000400077020008770200087702000877020008AC
:10005000770200087702000877020008770200089C
:10006000770200087702000877020008770200088C
:10007000770200087702000877020008770200087C
:10008000770200087702000877020008770200086C
:10009000770200087702000877020008770200085C
:1000A00077020008A515000877020008770200080B
:1000B00077020008B11500087702000877020008EF
:1000C000770200087702000877020008770200082C
:1000D0007702000877020008251B00087702000855
:1000E000770200087702000877020008770200080C
:1000F00077020008770200087702000877020008FC
:1001000077020008770200087702000877020008EB
:1001100077020008770200087702000877020008DB
:1001200077020008770200087702000877020008CB
:1001300077020008770200087702000877020008BB
:1001400077020008770200087702000877020008AB
:10015000770200087702000877020008770200089B
:10016000770200087702000877020008770200088B
:1001700077020008770200087702000800000000FC
:100180007702000877020008DFF80CD000F0ECF8E6
:10019000004800472D1D0008884C00202C4B196892
:1001A0000868B0E8F04F80F30988BFF36F8F4FF015
:1001B000000080F3118870470000000008480068C4
:1001C000006880F308884FF0000080F3148862B65E
:1001D00061B6BFF34F8FBFF36F8F00DF00BF00BF6B
:1001E00008ED00E0DFF80C00016841F470010160E7
:1001F000704700BF88ED00E0EFF30980BFF36F8F19
:10020000134B1A681EF0100F08BF20ED108A20E96A
:10021000F04F106009B44FF0500080F31188BFF325
:100220004F8FBFF36F8F02F0D9FA4FF0000080F3C9
:10023000118809BC19680868B0E8F04F1EF0100F6B
:1002400008BFB0EC108A80F30988BFF36F8F704746
:1002500020000020EFF3058070470000064880472B
:1002600006480047FEE7FEE7FEE7FEE7FEE7FEE79B
:10027000FEE7FEE7FEE7FEE75115000889010008EA
:100280002DE9F05F0546002092469B4688460646CB
:10029000814640241BE0284641464746224600F05E
:1002A00053F853465A46C01A914110D31146184686
:1002B000224600F03AF82D1A67EB01084F46224615
:1002C0000120002100F031F817EB00094E41201EFB
:1002D000A4F10104DFDC484631462A464346BDE826
:1002E000F09F40EA01039B0703D009E008C9121FF1
:1002F00008C0042AFAD203E011F8013B00F8013BE0
:10030000521EF9D27047D2B201E000F8012B491E0B
:10031000FBD270470022F6E710B513460A460446A2
:100320001946FFF7F0FF204610BD202A04DB203AD3
:1003300000FA02F1002070479140C2F1200320FA38
:1003400003F3194390407047202A04DB203A21FA36
:1003500002F00021704721FA02F3D040C2F12002DE
:100360009140084319467047064C074D06E0E06887
:1003700040F0010394E8070098471034AC42F6D3EC
:10038000FFF706FF4833000868330008FEE7000067
:1003900070B5002248F280354FF6FF740CE000BFC4
:1003A00010F8013B82EA03220823160400D56A40B4
:1003B00004EA42025B1EF8D1491E89B2F0D2100A4B
:1003C00070BD7047704790F83510022903D0802126
:1003D000416501207047052180F8351000680168EB
:1003E00021F0010101600020704700002DE9F84F65
:1003F000DFF87CB100224FF001084FF0030A4FF004
:100400000F090BF1040E00BF0B6808FA02F4234039
:10041000A3426ED14D68022D01D0122D0ED1D50808
:1004200000EB850CDCF820505607F70E09FA07F6AA
:10043000B5430E69BE402E43CCF8206006685500D7
:100440000F790AFA05FC07F0030726EA0C06AF400D
:10045000374307604E68012E05D0022E03D0112EBF
:1004600001D0122E0ED18668CF6826EA0C06AF4066
:10047000374387604668A6430C79C4F30014944060
:1004800034434460C6688C6826EA0C06AC403443AA
:10049000C4604C68E40065D5364C256845F4804559
:1004A0002560246822F0030504F480440094324C53
:1004B0002E19D6F8084895072F0F09FA07F5AC430F
:1004C0002E4DA84201D1002524E02D4DA84201D196
:1004D00001251FE02B4DA84201D102251AE02A4D2B
:1004E000A84201D1032515E0284DA84202D10425D8
:1004F00010E037E0264DA84201D105250AE0254D40
:10050000A84201D1062505E0234DA84201D10725C7
:1005100000E00825BD402543C6F80858DBF8004038
:100520005D464E689C43F60300D51C432C60DEF804
:10053000004075464E689C43B60300D51C432C60B2
:100540000B4D08352C684E689C43F60200D51C43C1
:100550002C60074D0C352C684E689C43B60200D5C4
:100560001C432C60521C102AFFF44EAFBDE8F88FDC
:10057000003C01404438024000300140000002408D
:100580000004024000080240000C0240001002403B
:100590000014024000180240001C0240426931EA87
:1005A000020200D10904816170470000014880689F
:1005B0007047000010000020024881680278114452
:1005C00081607047100000200B4810B5016841F4AD
:1005D00000710160016841F480610160016841F4CB
:1005E00080710160032000F08DF8002000F006F813
:1005F00000F03EF8002010BD003C024010B501465E
:1006000088B00022192000F05DF8192000F04CF8A5
:1006100013480024016841F001010160006805A948
:1006200000F001000690684600F016F900F044F969
:100630000C494000B0FBF1F10C480B4A491E026026
:1006400040F2E732C0E90324C0E9011400F027FBBF
:1006500010B1012008B010BD044800F059FBF9E7C3
:100660004438024040420F0000000140D40A0020FC
:100670000C4882B0016841F480410160006800F4D8
:10068000804000900748001F016841F080510160E0
:100690000068002200F0805000900F21901E02B0F0
:1006A00000F010B844380240002809DB00F01F02B7
:1006B000012191404009800000F1E020C0F80011C4
:1006C00070470000F0B40E4B1B680C46C3F30223C6
:1006D000C3F10705042D00D90425191D072901D2EE
:1006E000002300E0DB1E012606FA05F1491E214029
:1006F00099409E40761E16403143F0BC01F0F1BA9D
:100700000CED00E0064900F0070208684FF6FF0311
:10071000184040EA0220034A104308607047000076
:100720000CED00E00000FA052DE9F0470E4605004B
:1007300065D0DFF81481D8F80000F7B200F00F00A0
:10074000B04207D288F80070D8F8000000F00F001F
:10075000B04254D128683D4C810712D5400703D5DB
:10076000206840F4E05020602878000703D5206816
:1007700040F4604020602068A96820F0F000084341
:1007800020602878C0072DD03049686808390128D2
:1007900012D0022813D0032811D009688907002934
:1007A0002DDA216821F0030101432160FFF7FEFEED
:1007B000814641F2883A0EE009688903EFE709684B
:1007C0008901ECE7FFF7F2FEA0EB0901514502D9E0
:1007D0000320BDE8F0872068696800F00C00B0EBEA
:1007E000810FEFD1D8F80010404601F00F01B1425F
:1007F00007D90770006800F00F00B04201D0012057
:10080000E7E72878400705D52068E96820F4E0503C
:10081000084320602878000706D52068296920F45D
:10082000604040EAC100206000F056F82168084AA4
:10083000C1F30311515CC840064908600020FFF76E
:10084000DDFE0020C5E70000003C02400838024001
:10085000183300081C0000200F2202600C4A1368A5
:1008600003F003034360136803F0F003836013682D
:1008700003F4E053C36012684FF4E05303EAD2027A
:1008800002610448006800F00F0008607047000033
:1008900008380240003C02400448054900680968E5
:1008A000044AC1F38221515CC84070471C000020FB
:1008B00008380240283300080448054900680968E0
:1008C000044AC1F34231515CC84070471C0000200B
:1008D0000838024028330008154810B5006810F0A9
:1008E0000C02144813D01449042A0FD0082A0ED140
:1008F0000F4C241F2268236802F03F025B0207D5D9
:100900002068C0F38810A0FB010106E0084610BD76
:100910002168C1F38811A1FB00010023FFF7B0FC9F
:100920002168C1F30141491C4900B0FBF1F010BD41
:10093000083802400024F40040787D012DE9F84F8A
:10094000050076D02878DFF8F8B2BE4CC00749D051
:10095000DBF800105846C1F38101012908D0006876
:10096000C0F3810002280AD1201D0068400206D58C
:100970002068800336D568680028E2D032E06868D5
:10098000B0F5803F10D0B0F5A02F206810D020F433
:1009900080302060206820F4802020606868A0B14A
:1009A000FFF704FE06460CE0206840F48030F4E7D0
:1009B00040F480202060F7E7FFF7F8FD801B6428F3
:1009C00073D820688003F7D50CE0FFF7EFFD0646EB
:1009D00005E000BFFFF7EAFD801B6428F0D820681F
:1009E0008003F7D42878DFF8608280074FF0000991
:1009F0003ED5DBF80010584611F00C0F09D0006806
:100A0000C0F3810002280BD18D48001F006840020E
:100A100006D42068800715D5E868012809D111E0BF
:100A2000E868B8B10120C8F80000FFF7BFFD06462E
:100A300005E002E1FFF7BAFD801B0228C0D820685C
:100A40008007F7D52068296920F0F80040EAC10046
:100A500020600DE0C8F80090FFF7A8FD064604E00E
:100A6000FFF7A4FD801B02281FD820688007F7D459
:100A70002878000722D5724E744869696C3671B1C6
:100A800001210160FFF792FD074604E0FFF78EFDAC
:100A9000C01B022809D830688007F7D50EE0C0F8DF
:100AA0000090FFF783FD074605E083E0FFF77EFD3A
:100AB000C01B02287ED830688007F7D4287840070A
:100AC00068D5DFF87CA100270AF1380ADAF80000BF
:100AD000C0000BD4DAF8001041F08051CAF80010C1
:100AE000DAF80000012700F080500090584E30687E
:100AF000C00510D4306840F480703060FFF756FDB8
:100B0000009005E0FFF752FD0099401A022851D8E5
:100B10003068C005F6D54A4EA868683601280FD05F
:100B20000528306810D020F001003060306820F0D7
:100B300004003060A868B8B1FFF738FD00900FE0FE
:100B4000306840F00100F4E740F004003060F7E75F
:100B5000FFF72CFD0099411A41F28830814264D898
:100B600030688007F4D50EE0FFF720FD009007E025
:100B7000FFF71CFD0099411A41F28830814254D898
:100B800030688007F4D42FB1DAF8001021F08051DA
:100B9000CAF80010A869C0B3DBF80010C1F38101E6
:100BA00002294AD00228484607D0C8F86000FFF75B
:100BB000FDFC00E039E005463AE04746C8F8600031
:100BC000FFF7F4FC064604E0FFF7F0FC801B022868
:100BD0002BD820688001F7D4D5E907010843A96A1A
:100BE0001C4A490802EB01416A6A41EA8211084342
:100BF00095F82C1040EA01611148001F01600120A6
:100C00003866FFF7D3FC054605E014E0FFF7CEFC9D
:100C1000401B022809D820688001F7D50BE000BFEF
:100C2000FFF7C4FC401B022802D90320BDE8F88F5F
:100C300020688001F4D40020F8E70120F6E70000E6
:100C4000083802400038024000004742800E474208
:100C5000007000400000FFFF7047704770B590F8CB
:100C60003C20012A19D0012400F83C4F0222427096
:100C700050F83C3C5A689D6822F070060A68496842
:100C8000324325F0800529435A6050F83C2C91608E
:100C9000447000210170084670BD022070BD10B57F
:100CA000040003D094F83D0010B107E0012010BD0E
:100CB000002084F83C00204600F00CF8022084F864
:100CC0003D00211D206800F079FC012084F83D00E2
:100CD000002010BD08B500680B49884212D10B48AE
:100CE000016841F0020101600068002200F002008A
:100CF000009005211D20FFF7E5FCBDE808401D2000
:100D0000FFF7D2BC08BD000000040040403802409C
:100D10000168CA6842F00102CA600068816801F097
:100D20000701062903D0016841F00101016000209C
:100D300070470168CA6822F00102CA600068016A4F
:100D400041F21112114207D1016A9210114203D1EE
:100D5000016821F0010101600020704770B5044670
:100D600090F83C00012817D0012584F83C5002205F
:100D700084F83D002068826822F0770222F47F42E6
:100D800082600868502830D00DDC20284DD005DC6A
:100D900098B310283BD148E0022070BD302844D0E1
:100DA000402834D139E0602828D0702806D0B0F52A
:100DB000805F2CD0B0F5005F29D10AE0CB68D1E983
:100DC0000121206800F05EFC2068816841F0770115
:100DD00009E0CB68D1E90121206800F053FC2068CC
:100DE000816841F48041816011E0CA6849682068E7
:100DF00000F05AFC5021206807E016E0CA684968F4
:100E0000206800F062FC6021206800F045FC84F856
:100E10003D50002084F83C0070BDCA6849682068D5
:100E200000F042FC40212068EFE7226801461046AE
:100E3000EBE7704770B50446006801694FF00005A4
:100E4000C943890715D4C168C943890711D4E91E6C
:100E5000016101202077206880698007204602D048
:100E6000FFF7E7FF04E000F098F8204600F096F85E
:100E7000257720680169C943490717D4C168C94368
:100E8000490713D46FF00401016102202077206824
:100E9000806910F4407F204602D0FFF7CAFF04E0CB
:100EA00000F07BF8204600F079F82577206801698A
:100EB000C943090716D4C168C943090712D46FF0A2
:100EC00008010161042020772068C069800720465E
:100ED00002D0FFF7AEFF04E000F05FF8204600F01C
:100EE0005DF8257720680169C943C90617D4C16830
:100EF000C943C90613D46FF010010161082020779F
:100F00002068C06910F4407F204602D0FFF791FFAF
:100F100004E000F042F8204600F040F82577206811
:100F20000169C943C90708D1C168C943C90704D1C8
:100F3000891E0161204600F033F820680169C94329
:100F4000090609D4C168C943090605D46FF08001B8
:100F500001612046FFF780FE20680169C943490608
:100F600009D4C168C943490605D46FF04001016145
:100F7000204600F03FF820680169C94389060BD478
:100F8000C168C943890607D46FF02001016120467A
:100F9000BDE87040FFF761BE70BD7047704700004C
:100FA00010B5044600680D49884201D1FFF704FBE3
:100FB0000B49206888420FD141150A48FFF7EEFA25
:100FC0000949012008700948FFF7B3FE0848006886
:100FD000BDE8104000F0EABE10BD00000000014076
:100FE000000400400014024000000020140B002008
:100FF0000C0000207047704770B502680446106806
:10100000D168536910F00F0F50D003F0010501F4BF
:10101000907635435DD0C20705D0CA0503D5E26B93
:1010200042F00102E263420705D5DA0703D0E26B22
:1010300042F00202E263820705D5DA0703D0E26BD1
:1010400042F00402E263020705D5DA0703D0E26B3F
:1010500042F00802E263E26B002A33D0800604D536
:10106000880602D5204600F058FB20684069E16BF5
:10107000C0F38010090700D428B3204600F03FFBDE
:101080002068416949061AD5416921F04001416152
:10109000606BA0B11B490165606BFFF794F90028F4
:1010A00010D0606B016DBDE870400847830610D515
:1010B0008B060ED52046BDE8704000F02EBB2046C2
:1010C000FFF799FF70BD2046FFF795FF0020E06312
:1010D00070BD030606D50B0604D52046BDE870405A
:1010E00000F0BCBC4006F3D54806F1D5D1682046D7
:1010F00021F04001D160202184F8391000F027F957
:1011000070BD0000EF16000870B5040004D094F81C
:101110003900002510B106E0012070BD84F8385078
:10112000204600F023F8242084F839002068C168A4
:1011300021F40051C160204600F03AFB20680169AB
:1011400021F4904101612068416921F02A01416147
:101150002068C16841F40051C160E563202084F833
:10116000390084F83A00002070BD000010B586B048
:10117000044614216846FFF7CDF8174920688842D5
:1011800028D11648016841F400310160006800F47C
:101190000030059011481038016841F001010160EC
:1011A0000068694600F0010005900C2000900220C4
:1011B000019001200290032003900720049008482A
:1011C000FFF714F9002205212620FFF77BFA2620DD
:1011D000FFF76AFA06B010BD0044004040380240F4
:1011E0000000024090F83A30202B22D1F9B1F2B140
:1011F00090F83830012B1CD081628285C285002195
:10120000C163222280F83A2080F838100168CA6849
:1012100042F48072CA6001684A6942F001024A6180
:101220000068C16841F02001C160002070470120C2
:10123000704702207047000010B5006810498842CE
:101240001DD110480021026851620F4C618831B9EC
:1012500000686FF0010101610A48FFF759FD0A4873
:101260000A4A401C017860881154401C608006497D
:101270000122BDE81040491C0548FFF7B3BF10BD6F
:1012800000440040140B00200000002080000020DB
:10129000540B00202DE9F843044690F839001F460E
:1012A00016460D46202850D1A5B19EB194F83800BD
:1012B00001284AD0012084F838004FF00008C4F813
:1012C0003C80212084F83900FFF770F9A68481461C
:1012D000E68426E00120BDE8F883E08C401EE0842F
:1012E000A0684B46B0F5805F4FF000024FF08001E0
:1012F0002046009703D000F0E2FBE8B90DE000F0D3
:10130000DEFBC8B928882168C0F30800486020695E
:1013100008B16D1C05E0AD1C03E0216815F8010B58
:101320004860E08C0028D8D14B460022402120465E
:10133000009700F0C4FB08B10320CCE7202084F81C
:10134000390084F838800020C5E70220C3E77047E1
:10135000FEE7000010B590B000200E900F90012124
:101360000EA800F004FD0C4C1C220C49A06068463D
:10137000FEF7B7FF0021684600F072FD07492060C4
:101380001C221C3107A8FEF7ACFF002107A800F0C3
:1013900067FD606010B010BD04000020E03200085E
:1013A000054808B5016841F001010160006800F0DE
:1013B0000100009008BD00003038024010B586B032
:1013C0000024174800940194029403940494134950
:1013D0000594016042F27F51C0E90114C721C0E9C0
:1013E00003148461FFF75BFC08B1FEF7EBFF4FF4D9
:1013F0008050009069460A48FFF7B0FC08B1FEF73C
:10140000E1FF049404A906480594FFF727FC00288F
:1014100001D0FEF7D7FF06B010BD00000004004069
:10142000140B00200C4810B50A4901604FF4165106
:101430004160002181600C22C160C0E90412816119
:10144000C161FFF761FE002803D0BDE81040FEF740
:10145000B9BF10BD00440040540B0020FEE77047A8
:10146000012207490748FFF7BDFE074D4FF48044AE
:1014700021462846FFF792F8C82000F06CFCF7E7F9
:1014800001000020540B002000040240034C6421A2
:10149000A06800F0B3FC00F04BFBF8E7040000206C
:1014A00010B5502080F31188BFF34F8FBFF36F8FBB
:1014B00001F080FD18B104494FF080500860002011
:1014C00080F3118810BD000004ED00E030B593B04A
:1014D00030216846FEF71EFF14210CA8FEF71AFF04
:1014E00019480025016841F080510160006800F052
:1014F000805011901548016841F4804101600068F6
:10150000022400F4804011900120039010200490E8
:10151000009406940820CDE907506020CDE9090425
:1015200004200B906846FFF709FA0CA90F2081E808
:1015300031004FF4A0500F90E002109003210CA84E
:10154000FFF7F2F813B030BD4038024000700040A1
:101550001048016841F4700101600F48016841F0D2
:10156000010101600C4A00210832116002680B4B36
:101570001A400260031D0A4A1A60026822F480229F
:10158000026005480C300160024958068039086045
:101590007047000088ED00E000380240FFFFF6FED3
:1015A000103000240148FFF745BC0000D40A002099
:1015B0000148FFF73FBC0000140B0020F0B50268A3
:1015C000254C264D264E274F274B4FF0804CA042EE
:1015D00009D0604507D0A84205D0B04203D0B84238
:1015E00001D0984204D122F0700E4A6842EA0E02FD
:1015F000A0421BD0604519D0A84217D0B04215D0E8
:10160000B84213D0984211D0184DA8420ED0184DB0
:10161000A8420BD0174DA84208D0174DA84205D0BC
:10162000164DA84202D0164DA84203D122F44075AF
:10163000CA682A434D6922F080022A4302608A6800
:10164000C2620A688262A04201D0984201D109694F
:10165000016301214161F0BD000001400004004030
:1016600000080040000C0040000401400040014020
:10167000004401400048014000180040001C0040A8
:101680000020004010B5846842EA032224F47F441D
:101690000A432243826010BD826822F070020A432E
:1016A00042F007018160704710B5036A046A24F0B4
:1016B00001040462846924F0F00444EA021423F073
:1016C0000A020A438461026210BD10B5036A23F066
:1016D000100303628369046A23F4704343EA02320D
:1016E00024F0A00343EA01118261016210BD10B52C
:1016F000806B0021C185C184FFF77DFC10BD0168AE
:10170000CA6822F49072CA6001684A6922F0010234
:101710004A61202180F83A10704710B590F83A10CD
:10172000222901D0022010BD8168B1F5805F11D05F
:101730000169002901681FD0496801F07F03816AAF
:101740004A1C82620B70C18D491E0904090CC185B7
:1017500018D02BE00269816A002A0268526805D01D
:10176000D2B20A80816A491C8162ECE7C2F30802A6
:101770000A80816A891CF7E74A68816A4B1C836288
:101780000A70E0E70168CA6822F02002CA600168B6
:10179000CA6822F48072CA6001684A6922F00102B4
:1017A0004A61202180F83A10FFF746FD002010BD65
:1017B0002DE9F041044600680169E26821F44051D6
:1017C000114301612169A068E2690843616911431D
:1017D00022680843D16849F20C6399430143D16000
:1017E00020684169A26921F4407111434161E269B5
:1017F0006425B2F5004F9748974922684FF03208A8
:101800003FD08A4201D082427CD1FFF755F800EBED
:10181000C00101EB001061688900B0FBF1F6FFF731
:101820004BF800EBC00101EB001061688900B0FBD0
:10183000F1F0B0FBF5F06FF01801484306EB8001C2
:1018400008EB0110B0FBF5F000F0F006FFF734F8FC
:1018500000EBC00101EB001061688900B0FBF1F002
:10186000B0FBF5F006EB0016FFF726F800EBC00121
:1018700001EB001061688900B0FBF1F7FFF71CF87D
:10188000D2E08A4201D082423DD1FFF715F800EB49
:10189000C00101EB001061684900B0FBF1F0B0FB42
:1018A000F5F00601FFF708F800EBC00101EB0010AE
:1018B00061684900B0FBF1F7FEF7FEFF00EBC001E5
:1018C00001EB001061684900B0FBF1F0B0FBF5F0EE
:1018D0006FF01801484307EB800108EBC100B0FB33
:1018E000F5F000F0F80006EB4006FEF7E5FF00EB30
:1018F000C00101EB001061684900B0FBF1F7FEF791
:10190000DBFF3CE055E0FEF7C7FF00EBC00101EB59
:10191000001061684900B0FBF1F0B0FBF5F0060182
:10192000FEF7BAFF00EBC00101EB0010616849004F
:10193000B0FBF1F7FEF7B0FF00EBC00101EB0010C8
:1019400061684900B0FBF1F0B0FBF5F06FF01801F1
:10195000484307EB800108EBC100B0FBF5F000F055
:10196000F80006EB4006FEF797FF00EBC00101EB25
:10197000001061684900B0FBF1F7FEF78DFF00EB46
:10198000C00101EB001061684900B0FBF1F0B0FB51
:10199000F5F06FF01801484307EB800108EBC10038
:1019A000B0FBF5F000F00700216830448860BDE826
:1019B000F081FEF771FF00EBC00101EB00106168E0
:1019C0008900B0FBF1F6FEF767FF00EBC00101EB09
:1019D000001061688900B0FBF1F0B0FBF5F06FF02A
:1019E0001801484306EB800108EB0110B0FBF5F04D
:1019F00000F0F006FEF750FF00EBC00101EB001015
:101A000061688900B0FBF1F0B0FBF5F006EB001661
:101A1000FEF742FF00EBC00101EB00106168890096
:101A2000B0FBF1F7FEF738FF00EBC00101EB00104F
:101A300061688900B0FBF1F0B0FBF5F06FF01801C0
:101A4000484307EB800108EB0110B0FBF5F000F014
:101A50000F00A9E7001401400010014090F8391070
:101A6000212901D0022070478168B1F5805F016AA9
:101A70000BD04A1C0262026809785160C18C491E71
:101A80000904090CC1840ED017E009880268C1F36B
:101A90000801516001690029016A02D0491C0162F4
:101AA000ECE7891CFBE70168CA6822F08002CA6083
:101AB0000068C16841F04001C160002070472DE915
:101AC000F041984617460E460446069D1DE0681CE8
:101AD0001BD02DB1FEF76AFDA0EB0800A84214D977
:101AE0002068C16821F4D071C1602068416921F08B
:101AF00001014161202084F8390084F83A00002077
:101B000084F838000320BDE8F0812068006836EAD8
:101B1000000004D00020B842D9D00020F3E7012013
:101B2000F9E700000148FFF767BA0000540B0020F6
:101B30002DE9F04FDFF8649189B099F80000012891
:101B400079D1DFF85CA100206E469AF80040554933
:101B500003E00A5C3254401CC0B2A042F9D39DF8A5
:101B600000009DF8018000255A2801D04EA005E014
:101B700021463046FEF70CFC28B14CA0012200683B
:101B800008A9089019E00127022180204FF6FF7B69
:101B9000B8F1070F73D2DFE808F004143252575B34
:101BA0006100601E81B26846FEF7F2FB31192246E1
:101BB00001F8010C8DF802501FE03D4800F07AF862
:101BC0005DE008218DF802108DF80450FF218DF89A
:101BD00005108DF8060063208DF808508DF8090077
:101BE0008DF807008DF803508DF80A500B216846D8
:101BF000FEF7CEFB8DF80B000C226946DDE78DF871
:101C000002108DF803008DF8055021466846FEF756
:101C1000BFFB30555B46621C69462548FFF73AFB1F
:101C2000642000F098F807208DF804000A2803D8F3
:101C30008DF8055018E02BE08DF8057014E08DF854
:101C400002108DF80300F3E78DF80270842002E0A3
:101C50008DF8027040208DF8030003E08DF80270CB
:101C60008DF803708DF8045021466846FEF790FB0E
:101C700030555B46621C69460D48FFF70BFB89F83F
:101C80000050AAF800504FF400610648FEF742FBEE
:101C900009B00120BDE8F04F00F05DB80000002061
:101CA0000200002080000020EE000000FF00000085
:101CB000540B002010B5094C0748236823F0020399
:101CC000236092B24FF6FF73FFF7E4FA206840F00A
:101CD0000200206010BD0000540B00200C440040A6
:101CE000FEE70907090E002804DB00F1E02080F878
:101CF0000014704700F00F0000F1E02080F8141D80
:101D0000704702E008C8121F08C1002AFAD17047C4
:101D10007047002001E001C1121F002AFBD170476B
:101D2000EFF30580002800D001207047FEF74CFC3F
:101D3000FFF7CCFBFFF734FBFFF740FBFFF772FB2D
:101D4000FFF708FB00F00EF8FEE7014600208429AB
:101D500000D0C81C704710B500B9012000F060FC2D
:101D6000002010BD10B500F0FBFC002010BD38B500
:101D700043684BB1012909D103200022009011468C
:101D8000012000F0F7FD38BD012901D0002038BD49
:101D900003220021012000F0C9FD040004D000232B
:101DA0001A46194600F05EFE204638BD38B50024BC
:101DB00005460094FFF7B4FF90B16946284600F04D
:101DC00001FF012801D0FF2038BD009888B10A49E1
:101DD0004FF080500860BFF34F8FBFF36F8F08E064
:101DE00000231A461946284600F03CFE012800D080
:101DF000FF24204638BD000004ED00E038B50500A2
:101E00004FF0000000900FD00024481C0ED001B10C
:101E10000C46FFF785FFB8B16A460021284600F05E
:101E20001FFF012816D104E0802038BD4FF0FF3499
:101E3000EFE7009880B109494FF080500860BFF388
:101E40004F8FBFF36F8F07E02146284600F056FF03
:101E5000012801D0FF2038BD002038BD04ED00E08E
:101E60007FB50D4604464169B0F9080081B1A1690A
:101E700071B1FFF76AFFD4E905128DE80700D4E9D4
:101E800000102B46226901F05CF8039004B070BD8D
:101E9000FFF75BFF03A9CDE90001208A2B4682B240
:101EA000D4E9001001F020F8012801D00020EDE76E
:101EB0000398EBE72DE9F041184C0F46054666699B
:101EC0002068001D00F0BEFA38B9206890F82C1088
:101ED00001208840A1698143A161681C07D137B105
:101EE0002168BDE8F0410E48091D00F0EFBA2068F6
:101EF0003544B5424560216805D2A068BDE8F0418F
:101F0000091D00F0CBBA6068091D00F0C7FA206B0C
:101F1000854200D22563BDE8F0810000200000204A
:101F2000700C00202DE9F041054600F0DBFA2E4C44
:101F30002069401C206120682C4F10B1E06940B33B
:101F40002DE025602069012829D1002606EB8600B6
:101F500007EB800000F094FA761C072EF6D3234896
:101F60008C3000F08DFA2148A03000F089FA1F482B
:101F7000B43000F085FA1D48C83000F081FA1B48E3
:101F8000DC3000F07DFA19488C3060601430A060BD
:101F900005E02068E96AC06A884200D82560E06AE6
:101FA000401CE062E96A0120A26988401043A061F8
:101FB00001EB810007EB8000291D00F087FA00F09B
:101FC000B1FAE06900280CD02068E96AC06A88424A
:101FD00007D207494FF080500860BFF34F8FBFF31F
:101FE0006F8FBDE8F081000020000020940B0020DE
:101FF00004ED00E030B4026C0B46002A0BD0C1683F
:102000001144C1604468A14201D30168C16030BC81
:102010001846FEF766B930BC70472DE9F041856B74
:10202000174604460026026C82B1C7B1E068FEF78D
:1020300058F9E168206C091AE1602268914202D2E5
:102040006168081AE060022F16D017E02068A8B96E
:10205000606801F013F80646002060600EE0A0689A
:10206000FEF73FF9216CA0680844A06061688842CF
:1020700004D32068A06001E005B16D1E6D1CA5634E
:102080003046BDE8F08110B5044690F8510058B1D3
:1020900001280CD002280FD0502080F31188BFF304
:1020A0004F8FBFF36F8FFEE7206B00F04FFA204693
:1020B000BDE8104000F04ABA10BD000010484FF4CF
:1020C0007051420706D0C01D0D4920F00700411A8B
:1020D000C1F570510B4A00230144C2E900030839DD
:1020E000103A21F0070111604B600B600B1AC0E938
:1020F000001393604FF000405360D06070470000C1
:10210000840C00206C000020144E154CA6F1C8076A
:102110004FF08058DFF84C9012E000BF00F0E2F979
:10212000F068C568281D00F08DF92069401E206107
:10213000E068401EE06000F0F5F92846FFF7A3FFD5
:10214000E0680028EAD138680128F9D9C9F8008088
:10215000BFF34F8FBFF36F8FF2E700005C0C0020DE
:102160002000002004ED00E00346009829B1026041
:10217000C0E90F31012100F031BC0060F8E72DE922
:10218000F0479A46DDE9098481466FF00303206B2E
:1021900003EB82021044089D20F00706700707D069
:1021A000502080F31188BFF34F8FBFF36F8FFEE78E
:1021B00023180A5C83F834200A5C12B1401C1028F2
:1021C000F6D3002784F84370072D00D30625E56277
:1021D000C4E91157201D00F05EF904F1180000F069
:1021E0005AF92461C5F107006462A061E76484F8CC
:1021F000507052464946304600F00EF92060B8F162
:10220000000F01D0C8F80040BDE8F08730B5114993
:1022100000E011460A688242FBD34B685C18844296
:1022200003D1406818444860084643681C1894422B
:1022300009D1084C103C2468A24209D052681A44C3
:1022400042600A6812680260814200D0086030BDB6
:102250000460F9E76C00002010B5044600F042F974
:10226000A06B28B15FF0000400F05CF9204610BDBF
:102270000124F9E706484168096829B14168C9683D
:10228000C9684968016370474FF0FF31FAE7000001
:102290002000002008484068401C4FF0500080F3A8
:1022A000118804D0BFF34F8FBFF36F8FFEE7BFF3EA
:1022B0004F8FBFF36F8FFEE7740000202DE9F041D0
:1022C000044600F00FF994F9455004F1240609E0A2
:1022D000606A48B1304600F067FF08B100F0CEF9FF
:1022E0006D1E6DB2002DF3DC4FF0FF3684F84560B3
:1022F00000F018F900F0F6F894F9445004F11007D2
:1023000009E0206948B1384600F04EFF08B100F0FE
:10231000B5F96D1E6DB2002DF3DC84F84460BDE8A4
:10232000F04100F0FFB800002DE9F041054600271C
:1023300000F04CFA314E306808B9FFF7BFFEF06884
:1023400005424BD1C5B3083568070ED005F007002C
:10235000C0F108000544680707D0502080F31188B9
:10236000BFF34F8FBFF36F8FFEE72DB370688542C9
:1023700034D82248103001460C6801E020460C4653
:102380006168A94202D221680029F7D131688C42E4
:1023900024D007682168016060680837411B102954
:1023A0000FD96019420708D0502080F31188BFF37D
:1023B0004F8FBFF36F8FFEE710E041606560FFF75E
:1023C00025FF61687068401A7060B268904200D260
:1023D000B060F06801430020C4E9000100F01EFF76
:1023E000780707D0502080F31188BFF34F8FBFF3D9
:1023F0006F8FFEE73846BDE8F08100005C000020EA
:102400000449086818B10868826C521C8264086824
:10241000704700002000002010B5031F4FF08074AB
:102420001C601B1F21F001011960191F044B0B6078
:1024300014390A60091F6FF0020244380A6010BDA7
:1024400095220008D0E9013201699A60D0E90123A0
:102450005A604A68824201D182684A600022026161
:102460000868401E0860086870470000034B03605E
:1024700003F154000860802010607047800800203D
:1024800000F108014FF0FF32C0E90112C1600161A3
:1024900000210160704700210161704730B50B6871
:1024A0005A1C02D000F1080202E0026904E0224650
:1024B000546825689D42FAD953684B6099608A60D8
:1024C000516008610168491C016030BD42684A6082
:1024D00093688B6093685960916008610168491C3A
:1024E00001607047502080F31188BFF34F8FBFF316
:1024F0006F8F0A494868401C486001280CD1084881
:10250000006810F0FF0F07D0502080F31188BFF350
:102510004F8FBFF36F8FFEE77047000074000020FD
:1025200004ED00E00849486828B1401E486001D128
:1025300080F311887047502080F31188BFF34F8FCC
:10254000BFF36F8FFEE700007400002070B5002815
:1025500027D0144DA0F108046168E868014207D152
:10256000502080F31188BFF34F8FBFF36F8FFEE7CA
:1025700022683AB1502080F31188BFF34F8FBFF328
:102580006F8FFEE78143616000F020F96068696841
:10259000084468602046FFF739FEBDE8704000F04F
:1025A0003DBE70BD5C0000204FF0E02000210161C5
:1025B000816105494FF47A720968B1FBF2F1491E55
:1025C00041610721016170471C00002010B5FDF733
:1025D00041FE114910280ED300F1E02090F8F003DD
:1025E0000A78904207D2502080F31188BFF34F8FB2
:1025F000BFF36F8FFEE709480068896800F4E06068
:10260000884207D9502080F31188BFF34F8FBFF362
:102610006F8FFEE710BD0000740000200CED00E09D
:1026200010B5020014D00F48806B38B1502080F3F1
:102630001188BFF34F8FBFF36F8FFEE700F0C6F82E
:1026400000211046FFF736FC00F0E8FD002807D116
:1026500005494FF080500860BFF34F8FBFF36F8F75
:1026600010BD00002000002004ED00E002498A6A4D
:102670000260496941607047200000200149012043
:10268000486270472000002010B50C4650B109493F
:1026900009681831FFF702FF2046BDE8104001210C
:1026A000FFF708BC502080F31188BFF34F8FBFF3B2
:1026B0006F8FFEE72000002070B504004BD0A26CA5
:1026C000A2B1606C884200D30146E06A884242D0E1
:1026D000012A40D1204D2A6894420FD1502080F326
:1026E0001188BFF34F8FBFF36F8FFEE7502080F349
:1026F0001188BFF34F8FBFF36F8FFEE7E162A269CE
:10270000002A02DBC1F10701A161144E00EB800039
:10271000616906EB800081421DD1201DFFF792FE0A
:10272000012150B9E06A00EB800256F8222022B95C
:10273000AA6901FA00F08243AA61E06AAA698140AD
:102740001143A96100EB800006EB8000211DBDE86C
:102750007040FFF7BBBE70BD20000020940B00202E
:1027600010B586B00024039405AA04A903A8049414
:10277000FFF77CFEDDE903010094CDE901100023A1
:102780000EA11048059A00F0DCFB0F4900284863B1
:1027900011D0502080F31188BFF34F8FBFF36F8F9C
:1027A0004FF0FF3008630120C8614C6106B0BDE8FE
:1027B000104000F041B806B010BD000049444C453F
:1027C0000000000009210008200000200248816B61
:1027D000491C816370470000200000201448816B71
:1027E00011B1012141627047002141628169B1FA52
:1027F00081F1C1F11F0101EB81020E4951F8223034
:102800006BB101EB820101F108034A6852684A602A
:102810009A4201D152684A60D168016070475020E5
:1028200080F31188BFF34F8FBFF36F8FFEE7000077
:1028300020000020940B00201CB537480168374A5F
:10284000914207D1502080F31188BFF34F8FBFF31F
:102850006F8FFEE700683149491E884207D150203A
:1028600080F31188BFF34F8FBFF36F8FFEE72C49C2
:1028700008780190FF20087008788DF800009DF816
:1028800000009DF8002000F0F000904207D050209A
:1028900080F31188BFF34F8FBFF36F8FFEE79DF872
:1028A0000000204B00F0500018700720986005E0F1
:1028B0009DF8002052008DF80020401E9DF8002059
:1028C0001206F5D49860032807D0502080F31188B1
:1028D000BFF34F8FBFF36F8FFEE74FF440709860E8
:1028E000019808700C482030016841F470010160C3
:1028F000016841F070410160FFF756FE002058600A
:10290000FDF770FC0848016841F040410160FDF7A7
:1029100055FC00201CBD000000ED00E071C20F411D
:1029200000E400E07400002034EF00E0F8B5174642
:102930000E46050014D0DEB105FB06F04830FFF767
:10294000F3FC04000AD0002084F8460004F1480299
:102950003B46314628460094FFF706FC2046F8BD6A
:10296000502080F31188BFF34F8FBFF36F8FFEE7C6
:102970000020E3E738B5049D18B153B1CAB181B165
:1029800020E0502080F31188BFF34F8FBFF36F8F8B
:10299000FEE7502080F31188BFF34F8FBFF36F8F96
:1029A000FEE7502080F31188BFF34F8FBFF36F8F86
:1029B000FEE739B1502080F31188BFF34F8FBFF38A
:1029C0006F8FFEE748241C46012384F846302B46CF
:1029D0000094FFF7C9FB204638BD000070B50D46D6
:1029E000040025D0FFF77EFDD4E90F20216802FB0B
:1029F000001161600021A1632168A1600A46D4E949
:102A00000F01401E00FB0121E16021464FF0FF3025
:102A100001F8440F487004F110008DB1FFF730FD4C
:102A200004F12400FFF72CFDFFF77CFD012070BDB1
:102A3000502080F31188BFF34F8FBFF36F8FFEE7F5
:102A400021690029F0D000F0AFFB0028ECD0044948
:102A50004FF080500860BFF34F8FBFF36F8FE3E7F5
:102A600004ED00E02DE9FF4782B01D468A464FF095
:102A70000008040003D0BAF1000F08D011E0502084
:102A800080F31188BFF34F8FBFF36F8FFEE7206C89
:102A900038B1502080F31188BFF34F8FBFF36F8F91
:102AA000FEE7022D0AD1E06B012807D0502080F309
:102AB0001188BFF34F8FBFF36F8FFEE700F06CFA02
:102AC0003F4F4FF000094FF0805648B9049838B195
:102AD000502080F31188BFF34F8FBFF36F8FFEE755
:102AE000FFF700FDA06BE16B884207D3022D05D0F4
:102AF0000498D0B1B8F1000F1AD01EE02A46514612
:102B00002046FFF78AFA616A19B104F1240000F047
:102B10004BFB20B13E60BFF34F8FBFF36F8FFFF7CA
:102B200001FD012006B0BDE8F087FFF7FBFC22E0C5
:102B30006846FFF79BFD4FF00108FFF7F3FCFFF736
:102B400045FEFFF7CFFC94F94400401C01D184F806
:102B5000449094F94500401C01D184F84590FFF75A
:102B6000E1FC04A9684600F085F930B12046FFF782
:102B7000A5FB00F053FB0020D4E7FFF7B3FCA06BEC
:102B8000E16B884213D1FFF7CDFC04F110000499EA
:102B9000FFF77AFD2046FFF791FB00F03FFB00288E
:102BA0009ED13E60BFF34F8FBFF36F8F98E7FFF763
:102BB000B9FC2046FFF782FB00F030FB90E70000F5
:102BC00004ED00E070B50E46040009D0206C78B129
:102BD000502080F31188BFF34F8FBFF36F8FFEE754
:102BE000502080F31188BFF34F8FBFF36F8FFEE744
:102BF000206848B9606838B1502080F31188BFF36D
:102C00004F8FBFF36F8FFEE7FFF7E0FC5020EFF32D
:102C1000118580F31188BFF34F8FBFF36F8FA16BC6
:102C2000E06B884218D994F94500491CA163411C06
:102C300004D0401C84F8450001200EE0606A0028A2
:102C4000FAD004F1240000F0AFFA0028F4D0002EEE
:102C5000F2D001203060EFE7002085F3118870BDCD
:102C60002DE9F04790468946040003D0B9F1000FE2
:102C700008D011E0502080F31188BFF34F8FBFF3CD
:102C80006F8FFEE7206C38B1502080F31188BFF3BE
:102C90004F8FBFF36F8FFEE7FFF798FC5020EFF3E5
:102CA000118680F31188BFF34F8FBFF36F8FA76B2F
:102CB000F7B194F9445049462046FFF79BF97F1E2F
:102CC000A763681C04D06D1C84F84450012010E0F8
:102CD00020690028FAD004F1100000F065FA0028FD
:102CE000F4D0B8F1000FF1D00121C8F80010EDE7E1
:102CF000002086F31188BDE8F08700002DE9F3433A
:102D0000002683B00400354609D0206C78B15020ED
:102D100080F31188BFF34F8FBFF36F8FFEE7502012
:102D200080F31188BFF34F8FBFF36F8FFEE700F082
:102D300033F9DFF83C814FF000094FF0805748B974
:102D4000049838B1502080F31188BFF34F8FBFF340
:102D50006F8FFEE7FFF7C6FBA06BC8B1401EA063F4
:102D6000206810B9FFF74CFB6060206950B104F196
:102D7000100000F019FA28B1C8F80070BFF34F8FA7
:102D8000BFF36F8FFFF7CEFB012005B0BDE8F083E6
:102D9000049808B166B10FE03DB1502080F311886E
:102DA000BFF34F8FBFF36F8FFEE7FFF7BBFB5DE015
:102DB0006846FFF75BFC0126FFF7B4FBFFF706FD53
:102DC000FFF790FB94F94400401C01D184F8449033
:102DD00094F94500401C01D184F84590FFF7A2FB0F
:102DE00004A9684600F046F80028204612D0FFF7F4
:102DF00065FA00F013FA2046FFF72EFA0028A9D052
:102E00009DB3FFF76FFB606A50B3206B0068C0F1A1
:102E1000070126E0FFF720FAE0B1206838B9FFF794
:102E200061FB606800F076F90546FFF77BFB04F173
:102E300024000499FFF728FC2046FFF73FFA00F032
:102E4000EDF9002886D1C8F80070BFF34F8FBFF3AB
:102E50006F8F7FE72046FFF731FA00F0DFF979E75F
:102E600000216068FFF728FC9FE7FFE700208CE760
:102E700004ED00E02DE9F0410C46050011D0C4B18D
:102E8000FFF730FB174B5A696E682068911B471C8F
:102E900017D02F689B6A9F4219D0964217D80124F9
:102EA00010E0502080F31188BFF34F8FBFF36F8F76
:102EB000FEE7502080F31188BFF34F8FBFF36F8F71
:102EC000FEE70024FFF72EFB2046BDE8F081884294
:102ED00005D9401A20602846FFF7C8FBF1E700201B
:102EE0002060DCE7200000202DE9FF5F8346DDE95C
:102EF0000E87994616468A469000FFF715FA050098
:102F00001CD05420FFF710FA040014D000202563D1
:102F100084F85100CDE90240CDE900874B463246A6
:102F200051465846FFF72BF92046FEF7FBFF0120DC
:102F300004B0BDE8F09F2846FFF708FB4FF0FF30D4
:102F4000F6E7F0B585B0DDE90B640A9DA6B1DCB10A
:102F5000542700972663022684F85160002604AFA8
:102F6000CDE90246CDE90057FFF709F92046FEF703
:102F7000D9FF049805B0F0BD502080F31188BFF34D
:102F80004F8FBFF36F8FFEE7502080F31188BFF3A0
:102F90004F8FBFF36F8FFEE70548C16919B1806B92
:102FA00018B10020704701207047022070470000D0
:102FB000200000202DE9F0412E4C0027A06B40B1ED
:102FC000206A401C2062606A00B101273846BDE8D3
:102FD000F0816669761C666113D16068006838B15B
:102FE000502080F31188BFF34F8FBFF36F8FFEE740
:102FF0006068A1686160A060A06A401CA062FFF7E1
:1030000039F9206BDFF87080864209D36068006868
:1030100080B16068C068C568686886420DD2206368
:103020002068C06A00EB800158F821000128CAD945
:103030000127C8E74FF0FF30F1E7281DFFF702FA3C
:10304000A86A18B105F11800FFF7FCF9E86A012138
:10305000A26981401143A16100EB800108EB81006E
:10306000291DFFF733FAE86A2168C96A8842CDD37F
:103070000127CBE720000020940B002070B504004E
:103080004FF0000140D0214D2868844207D05020E5
:1030900080F31188BFF34F8FBFF36F8FFEE7A06CF3
:1030A00038B1401EA064636CE26A9A422CD040B1F1
:1030B0002AE0502080F31188BFF34F8FBFF36F8F4A
:1030C000FEE7201DFFF7BEF9114A012150B9E06A61
:1030D00000EB800352F8233023B9AB6901FA00F00A
:1030E0008343AB61606CE062C0F10700A061E06AFD
:1030F000AB6981401943A96100EB800002EB8000BD
:10310000211DFFF7E3F90121084670BD20000020D2
:10311000940B002070B504004FF0000038D0204D13
:10312000E16A2A68D26A914233D2A069002804DB9E
:103130002868C06AC0F10700A0611A4E01EB810146
:10314000606906EB810188421ED1201DFFF77AF9E4
:10315000012150B9E06A00EB800256F8222022B922
:10316000AA6901FA00F08243AA612868C06AE06295
:10317000AA6981401143A96100EB800006EB800041
:10318000211DFFF7A3F902E02868C06AE062012070
:1031900070BD616C2A68D26A9142F8D370BD00009C
:1031A00020000020940B00202DE9F041C068C46885
:1031B000ACB104F118000746FFF744F9154DA86BB0
:1031C0000126A0B139461448FFF780F9E06A296862
:1031D000C96A88421CD901206E62BDE8F081502086
:1031E00080F31188BFF34F8FBFF36F8FFEE7201D71
:1031F000FFF728F9E16AAA6906FA01F01043A8610D
:1032000001EB81000449B43901EB8000211DDBE7AB
:103210000020E2E720000020480C00202DE9F047C4
:103220002C4D00242746A86B38B1FFF75BF9A86B3B
:10323000401EA863A86B40B146E0502080F311887F
:10324000BFF34F8FBFF36F8FFEE72969224E012036
:10325000D1B3A6F1B40980463068E8B1F068C4681B
:1032600004F11800FFF7EEF8201DFFF7EBF8E06A15
:10327000AA6908FA00F11143A96100EB800109EB8A
:103280008100211DFFF722F9E06A2968C96A884296
:10329000E2D3C5F82480DFE70CB1FEF7EBFF2C6A20
:1032A00044B14646FFF786FE00B16E62641EF9D156
:1032B00000202862686A38B1084901273807086089
:1032C000BFF34F8FBFF36F8FFFF72CF93846BDE880
:1032D000F087000020000020480C002004ED00E0F2
:1032E0003C330008611400080000000000000000EA
:1032F00080000000000000000000000030330008E3
:103300008D14000800000000000000008000000094
:1033100000000000000000000000000000000000AD
:10332000010203040607080900000000010203046B
:103330006D795461736B3032000000006465666122
:10334000756C745461736B006833000800000020D2
:1033500080000000021D0008E83300088000002003
:10336000084C0000121D00080000000000000000D2
:10337000000000000000000001000000100000003C
:10338000000000000024F400000000000000000025
:10339000000000000000000000000000000000002D
:1033A000000000000000000000000000000000001D
:1033B000000000000000000000000000000000000D
:1033C00000000000000000000000000000000000FD
:1033D00000000000000000000000000000000000ED
:0833E000AAAAAAAA000000003D
:040000050800018965
:00000001FF
