:020000040800F2
:10000000904C00205D0200086718000849140008A1
:10001000651800088D0300083D2600080000000058
:100020000000000000000000000000009D0100082A
:10003000C303000800000000F9010008C51800080B
:1000400077020008770200087702000877020008AC
:10005000770200087702000877020008770200089C
:10006000770200087702000877020008770200088C
:10007000770200087702000877020008770200087C
:10008000770200087702000877020008770200086C
:10009000770200087702000877020008770200085C
:1000A000770200087702000877020008770200084C
:1000B000B5190008C1190008770200087702000886
:1000C000770200087702000877020008770200082C
:1000D0007702000877020008B920000877020008BC
:1000E000770200087702000877020008770200080C
:1000F00077020008770200087702000877020008FC
:1001000077020008770200087702000877020008EB
:1001100077020008770200087702000877020008DB
:1001200077020008770200087702000877020008CB
:1001300077020008770200087702000877020008BB
:1001400077020008770200087702000877020008AB
:10015000770200087702000877020008770200089B
:10016000770200087702000877020008770200088B
:1001700077020008770200087702000800000000FC
:100180007702000877020008DFF80CD000F0ECF8E6
:100190000048004789260008904C00202C4B196825
:1001A0000868B0E8F04F80F30988BFF36F8F4FF015
:1001B000000080F3118870470000000008480068C4
:1001C000006880F308884FF0000080F3148862B65E
:1001D00061B6BFF34F8FBFF36F8F00DF00BF00BF6B
:1001E00008ED00E0DFF80C00016841F470010160E7
:1001F000704700BF88ED00E0EFF30980BFF36F8F19
:10020000134B1A681EF0100F08BF20ED108A20E96A
:10021000F04F106009B44FF0500080F31188BFF325
:100220004F8FBFF36F8F02F089FF4FF0000080F314
:10023000118809BC19680868B0E8F04F1EF0100F6B
:1002400008BFB0EC108A80F30988BFF36F8F704746
:100250002C000020EFF3058070470000064880471F
:1002600006480047FEE7FEE7FEE7FEE7FEE7FEE79B
:10027000FEE7FEE7FEE7FEE76119000889010008D6
:100280002DE9F05F0546002092469B4688460646CB
:10029000814640241BE0284641464746224600F05E
:1002A00053F853465A46C01A914110D31146184686
:1002B000224600F03AF82D1A67EB01084F46224615
:1002C0000120002100F031F817EB00094E41201EFB
:1002D000A4F10104DFDC484631462A464346BDE826
:1002E000F09F40EA01039B0703D009E008C9121FF1
:1002F00008C0042AFAD203E011F8013B00F8013BE0
:10030000521EF9D27047D2B201E000F8012B491E0B
:10031000FBD270470022F6E710B513460A460446A2
:100320001946FFF7F0FF204610BD202A04DB203AD3
:1003300000FA02F1002070479140C2F1200320FA38
:1003400003F3194390407047202A04DB203A21FA36
:1003500002F00021704721FA02F3D040C2F12002DE
:100360009140084319467047064C074D06E0E06887
:1003700040F0010394E8070098471034AC42F6D3EC
:10038000FFF706FF043D0008243D0008FEE70000DB
:1003900070B5002248F280354FF6FF740CE000BFC4
:1003A00010F8013B82EA03220823160400D56A40B4
:1003B00004EA42025B1EF8D1491E89B2F0D2100A4B
:1003C00070BD7047704790F83510022903D0802126
:1003D000416501207047052180F8351000680168EB
:1003E00021F00101016000207047000070B5044653
:1003F00000F0F0F80546601C02D004480078044480
:1004000000F0E8F8401BA042FAD370BD1C000020A9
:100410002DE9F84FDFF87CB100224FF001084FF0D2
:10042000030A4FF00F090BF1040E00BF0B6808FA26
:1004300002F42340A3426ED14D68022D01D0122D4B
:100440000ED1D50800EB850CDCF820505607F70ECE
:1004500009FA07F6B5430E69BE402E43CCF820607A
:10046000066855000F790AFA05FC07F0030726EA2B
:100470000C06AF40374307604E68012E05D0022EB0
:1004800003D0112E01D0122E0ED18668CF6826EA35
:100490000C06AF40374387604668A6430C79C4F327
:1004A0000014944034434460C6688C6826EA0C0605
:1004B000AC403443C4604C68E40065D5364C2568D4
:1004C00045F480452560246822F0030504F4804447
:1004D0000094324C2E19D6F8084895072F0F09FAC8
:1004E00007F5AC432E4DA84201D1002524E02D4D47
:1004F000A84201D101251FE02B4DA84201D10225C0
:100500001AE02A4DA84201D1032515E0284DA84242
:1005100002D1042510E037E0264DA84201D105257F
:100520000AE0254DA84201D1062505E0234DA84249
:1005300001D1072500E00825BD402543C6F808582D
:10054000DBF800405D464E689C43F60300D51C4333
:100550002C60DEF8004075464E689C43B60300D51B
:100560001C432C600B4D08352C684E689C43F602EA
:1005700000D51C432C60074D0C352C684E689C43FD
:10058000B60200D51C432C60521C102AFFF44EAF5B
:10059000BDE8F88F003C0140443802400030014083
:1005A000000002400004024000080240000C02402B
:1005B000001002400014024000180240001C0240DB
:1005C0000069084000D0012070470AB1816170477E
:1005D0000904FBE701488068704700001C00002008
:1005E0000248816802781144816070471C00002035
:1005F0000B4810B5016841F400710160016841F4D5
:1006000080610160016841F480710160032000F0A5
:1006100073F80F2000F006F800F024F8002010BD59
:10062000003C024070B50D4D04464FF47A712878B5
:10063000B1FBF0F00A490968B1FBF0F000F0E6FA0E
:1006400048B9102C07D200222146501E00F034F881
:1006500000206C6070BD012070BD00001C000020F7
:10066000280000200C4882B0016841F480410160FC
:10067000006800F4804000900748001F016841F0C6
:10068000805101600068002200F0805000900F212E
:10069000901E02B000F010B844380240002809DB78
:1006A00000F01F02012191404009800000F1E0208C
:1006B000C0F8001170470000F0B40E4B1B680C46E8
:1006C000C3F30223C3F10705042D00D90425191D26
:1006D000072901D2002300E0DB1E012606FA05F1FE
:1006E000491E214099409E40761E16403143F0BC81
:1006F00001F0A5BF0CED00E0064900F00702086814
:100700004FF6FF03184040EA0220034A10430860F6
:10071000704700000CED00E00000FA052DE9F047FD
:100720000E46050065D0DFF81481D8F80000F7B256
:1007300000F00F00B04207D288F80070D8F800002F
:1007400000F00F00B04254D128683D4C810712D50B
:10075000400703D5206840F4E05020602878000767
:1007600003D5206840F4604020602068A96820F02C
:10077000F000084320602878C0072DD03049686811
:100780000839012812D0022813D0032811D0096893
:10079000890700292DDA216821F003010143216036
:1007A000FFF718FF814641F2883A0EE00968890395
:1007B000EFE709688901ECE7FFF70CFFA0EB0901FF
:1007C000514502D90320BDE8F0872068696800F030
:1007D0000C00B0EB810FEFD1D8F80010404601F0CB
:1007E0000F01B14207D90770006800F00F00B04256
:1007F00001D00120E7E72878400705D52068E9689F
:1008000020F4E050084320602878000706D52068CF
:10081000296920F4604040EAC100206000F036F809
:100820002168084AC1F30311515CC84006490860B9
:100830000F20FFF7F7FE0020C5E70000003C024054
:1008400008380240C03C0008280000200448054940
:1008500000680968044AC1F38221515CC8407047AE
:100860002800002008380240D03C00080448054910
:1008700000680968044AC1F34231515CC8407047BE
:100880002800002008380240D03C0008154810B568
:10089000006810F00C02144813D01449042A0FD039
:1008A000082A0ED10F4C241F2268236802F03F0251
:1008B0005B0207D52068C0F38810A0FB010106E0A9
:1008C000084610BD2168C1F38811A1FB0001002377
:1008D000FFF7D6FC2168C1F30141491C4900B0FB78
:1008E000F1F010BD083802400024F40040787D018A
:1008F0002DE9F84F050076D02878DFF8F8B2BE4C25
:10090000C00749D0DBF800105846C1F38101012926
:1009100008D00068C0F3810002280AD1201D0068B9
:10092000400206D52068800336D568680028E2D0EA
:1009300032E06868B0F5803F10D0B0F5A02F206895
:1009400010D020F480302060206820F480202060C7
:100950006868A0B1FFF73EFE06460CE0206840F450
:100960008030F4E740F480202060F7E7FFF732FEA4
:10097000801B642873D820688003F7D50CE0FFF74C
:1009800029FE064605E000BFFFF724FE801B642811
:10099000F0D820688003F7D42878DFF860828007D9
:1009A0004FF000093ED5DBF80010584611F00C0F4F
:1009B00009D00068C0F3810002280BD18D48001FC8
:1009C0000068400206D42068800715D5E868012831
:1009D00009D111E0E868B8B10120C8F80000FFF7BC
:1009E000F9FD064605E002E1FFF7F4FD801B022851
:1009F000C0D820688007F7D52068296920F0F80062
:100A000040EAC10020600DE0C8F80090FFF7E2FD69
:100A1000064604E0FFF7DEFD801B02281FD8206891
:100A20008007F7D42878000722D5724E7448696988
:100A30006C3671B101210160FFF7CCFD074604E07F
:100A4000FFF7C8FDC01B022809D830688007F7D51A
:100A50000EE0C0F80090FFF7BDFD074605E083E01B
:100A6000FFF7B8FDC01B02287ED830688007F7D496
:100A70002878400768D5DFF87CA100270AF1380AFA
:100A8000DAF80000C0000BD4DAF8001041F0805111
:100A9000CAF80010DAF80000012700F0805000903A
:100AA000584E3068C00510D4306840F48070306013
:100AB000FFF790FD009005E0FFF78CFD0099401ACC
:100AC000022851D83068C005F6D54A4EA868683665
:100AD00001280FD00528306810D020F001003060C8
:100AE000306820F004003060A868B8B1FFF772FDEC
:100AF00000900FE0306840F00100F4E740F004009F
:100B00003060F7E7FFF766FD0099411A41F288303F
:100B1000814264D830688007F4D50EE0FFF75AFDB3
:100B2000009007E0FFF756FD0099411A41F2883026
:100B3000814254D830688007F4D42FB1DAF800101D
:100B400021F08051CAF80010A869C0B3DBF800108A
:100B5000C1F3810102294AD00228484607D0C8F8CB
:100B60006000FFF737FD00E039E005463AE0474610
:100B7000C8F86000FFF72EFD064604E0FFF72AFDE7
:100B8000801B02282BD820688001F7D4D5E9070103
:100B90000843A96A1C4A490802EB01416A6A41EA12
:100BA0008211084395F82C1040EA01611148001F9A
:100BB000016001203866FFF70DFD054605E014E0F1
:100BC000FFF708FD401B022809D820688001F7D5EF
:100BD0000BE000BFFFF7FEFC401B022802D90320F8
:100BE000BDE8F88F20688001F4D40020F8E70120E8
:100BF000F6E7000008380240003802400000474293
:100C0000800E4742007000400000FFFF10B5401EFC
:100C1000B0F1807F01D3012010BD4FF0E02460616E
:100C20000F21601701F00BFD0020A061072020615B
:100C3000002010BD7047704770B590F83C20012A25
:100C400019D0012400F83C4F0222427050F83C3C7D
:100C50005A689D6822F070060A684968324325F098
:100C6000800529435A6050F83C2C91604470002163
:100C70000170084670BD022070BD10B5040003D09D
:100C800094F83D0010B107E0012010BD002084F869
:100C90003C00204600F00CF8022084F83D00211DA5
:100CA000206800F093FE012084F83D00002010BD74
:100CB00008B501681448B1F1804F14D0134A91422D
:100CC00020D1016841F0020101600068002200F0BB
:100CD0000200009005211D20FFF7EEFC1D20BDE85D
:100CE0000840FFF7DBBC016841F0010101600068CA
:100CF000002200F00100009005211C20FFF7DCFC21
:100D00001C20ECE708BD0000403802400004004011
:100D1000022180F83D1001688A6802F00702062A65
:100D200003D00A6842F001020A60012180F83D10F8
:100D3000002070470168CA6842F00102CA6000687A
:100D4000816801F00701062903D0016841F0010123
:100D5000016000207047022180F83D1001680A6A96
:100D600041F211131A4207D10A6A9B101A4203D1A9
:100D70000A6822F001020A60012180F83D1000207B
:100D800070470168CA6822F00102CA600068016AFF
:100D900041F21112114207D1016A9210114203D19E
:100DA000016821F0010101600020704770B5044620
:100DB00090F83C00012817D0012584F83C5002200F
:100DC00084F83D002068826822F0770222F47F4296
:100DD00082600868502830D00DDC20284DD005DC1A
:100DE00098B310283BD148E0022070BD302844D091
:100DF000402834D139E0602828D0702806D0B0F5DA
:100E0000805F2CD0B0F5005F29D10AE0CB68D1E932
:100E10000121206800F03EFE2068816841F07701E2
:100E200009E0CB68D1E90121206800F033FE206899
:100E3000816841F48041816011E0CA684968206896
:100E400000F0FCFE5021206807E016E0CA684968FF
:100E5000206800F004FF6021206800F025FE84F87F
:100E60003D50002084F83C0070BDCA684968206885
:100E700000F0E4FE40212068EFE7226801461046BA
:100E8000EBE7704770B50446006801694FF0000554
:100E9000C943890715D4C168C943890711D4E91E1C
:100EA000016101202077206880698007204602D0F8
:100EB000FFF7E7FF04E000F0C3F8204600F0DDF89C
:100EC000257720680169C943490717D4C168C94318
:100ED000490713D46FF004010161022020772068D4
:100EE000806910F4407F204602D0FFF7CAFF04E07B
:100EF00000F0A6F8204600F0C0F8257720680169C8
:100F0000C943090716D4C168C943090712D46FF051
:100F100008010161042020772068C069800720460D
:100F200002D0FFF7AEFF04E000F08AF8204600F0A0
:100F3000A4F8257720680169C943C90617D4C16898
:100F4000C943C90613D46FF010010161082020774E
:100F50002068C06910F4407F204602D0FFF791FF5F
:100F600004E000F06DF8204600F087F8257720684F
:100F70000169C943C90708D1C168C943C90704D178
:100F8000891E0161204600F079F820680169C94393
:100F9000090609D4C168C943090605D46FF0800168
:100FA00001612046FFF746FE20680169C9434906F2
:100FB00009D4C168C943490605D46FF040010161F5
:100FC000204600F093F820680169C94389060BD4D4
:100FD000C168C943890607D46FF02001016120462A
:100FE000BDE87040FFF727BE70BD70B5044690F8AD
:100FF0003C0001280DD0012584F83C50022084F8E3
:101000003D0042B1042A0AD0082A0CD00C2A11D182
:101010000DE0022070BD206800F04EFD0AE020685F
:1010200000F07AFD06E0206800F0ACFD02E02068E8
:1010300000F0DCFD84F83D50002084F83C0070BDD9
:10104000704710B5040003D094F83D0010B107E0DC
:10105000012010BD002084F83C00204600F00CF870
:10106000022084F83D00211D206800F0AFFC012023
:1010700084F83D00002010BD7047704710B504464D
:101080000068B0F1804F13D15020EFF3118180F34D
:101090001188BFF34F8FBFF36F8F0F4A1078401C3A
:1010A000C0B21070FE2801D90020107081F31188A1
:1010B000FFF796FA0949206888420BD108490120B8
:1010C00008700848FFF75DFE07480068BDE810405B
:1010D00001F01CBB10BD0000140000200004004003
:1010E00016000020200300200400002070477047F5
:1010F00070B5026804461068D168536910F00F0F8C
:1011000050D003F0010501F4907635435DD0C2075D
:1011100005D0CA0503D5E26B42F00102E263420743
:1011200005D5DA0703D0E26B42F00202E2638207E0
:1011300005D5DA0703D0E26B42F00402E26302074E
:1011400005D5DA0703D0E26B42F00802E263E26BF6
:10115000002A33D0800604D5880602D5204600F048
:10116000A6FD20684069E16BC0F38010090700D438
:1011700028B3204600F08DFD2068416949061AD544
:10118000416921F040014161606BA0B11B490165DB
:10119000606BFFF718F9002810D0606B016DBDE897
:1011A00070400847830610D58B060ED52046BDE853
:1011B000704000F07CBD2046FFF799FF70BD2046CF
:1011C000FFF795FF0020E06370BD030606D50B0610
:1011D00004D52046BDE8704000F00ABF4006F3D5B4
:1011E0004806F1D5D168204621F04001D160202188
:1011F00084F8391000F027F970BD0000831C000846
:1012000070B5040004D094F83900002510B106E050
:10121000012070BD84F83850204600F023F82420C7
:1012200084F839002068C16821F40051C16020466B
:1012300000F088FD2068016921F490410161206877
:10124000416921F02A0141612068C16841F40051DF
:10125000C160E563202084F8390084F83A0000205A
:1012600070BD000010B586B0044614216846FFF733
:1012700051F817492068884228D11648016841F47E
:1012800000310160006800F400300590114810380A
:10129000016841F0080101600068694600F008003B
:1012A0000590602000900220019001200290032010
:1012B0000390072004900848FFF7AAF800220521B0
:1012C0002620FFF7F9F92620FFF7E8F906B010BD50
:1012D0000044004040380240000C024090F83A3090
:1012E000202B22D1F9B1F2B190F83830012B1CD06B
:1012F00081628285C2850021C163222280F83A2062
:1013000080F838100168CA6842F48072CA600168C7
:101310004A6942F001024A610068C16841F0200157
:10132000C160002070470120704702207047000014
:1013300010B500680F4988421BD10F480021026890
:1013400051620E4C218831B900686FF001010161D2
:101350000948FFF7EFFC0A480A4A0178208811542F
:10136000401C2080BDE81040012205490648FFF7D7
:10137000B5BF10BD0044004020030020180000202D
:101380001A000020A0030020600300202DE9F8438C
:10139000044690F839001F4616460D46202850D1C5
:1013A000A5B19EB194F8380001284AD0012084F8F4
:1013B00038004FF00008C4F83C80212084F8390040
:1013C000FFF708F9A6848146E68426E00120BDE8FF
:1013D000F883E08C401EE084A0684B46B0F5805F47
:1013E0004FF000024FF080012046009703D000F03C
:1013F00030FEE8B90DE000F02CFEC8B9288821685D
:10140000C0F308004860206908B16D1C05E0AD1C00
:1014100003E0216815F8010B4860E08C0028D8D162
:101420004B46002240212046009700F012FE08B1F2
:101430000320CCE7202084F8390084F8388000208D
:10144000C5E70220C3E77047FEE7000070B51B4CFC
:1014500001212046FFF7B4F8194DD8B110212046DC
:10146000FFF7AEF801281BD010212046FFF7A8F89F
:10147000002822D101212046FFF7A2F801281CD123
:101480000A20FEF7B3FF00222846BDE87040022183
:10149000FFF79BB84FF4FA70FEF7A8FF0122F3E7BD
:1014A0000A20FEF7A3FF012202212846FFF78DF84C
:1014B000BDE870400A20FEF799BF70BD00100240E1
:1014C000000C024070B51B4C02212046FFF778F853
:1014D000194DD8B120212046FFF772F801281BD002
:1014E00020212046FFF76CF8002822D10221204657
:1014F000FFF766F801281CD10A20FEF777FF0022CB
:101500002846BDE870400121FFF75FB84FF4FA703C
:10151000FEF76CFF0122F3E70A20FEF767FF0122C6
:1015200011462846FFF751F8BDE870400A20FEF743
:101530005DBF70BD00100240000C024070B51A4C37
:1015400004212046FFF73CF8184D4FF400560128BF
:1015500004D1012231462846FFF737F804212046FE
:10156000FFF72EF820B9002231462846FFF72DF864
:101570000F4C08212046FFF723F84FF4804601283E
:1015800004D1012231462846FFF71FF808212046E2
:10159000FFF716F8002806D131462846BDE870400E
:1015A0000022FFF712B870BD00080240000C024094
:1015B0000000024010B598B000201590169001214F
:1015C00015A801F084F8124C1C221249606068468C
:1015D000FEF787FE0021684601F0F2F80D49A06091
:1015E0001C221C3107A8FEF77CFE002107A801F091
:1015F000E7F80849E0601C2238310EA8FEF771FEBA
:1016000000210EA801F0DCF8206118B010BD000028
:10161000000000206C3C00082DE9F04786B0142142
:101620006846FEF777FE3D480024016841F010014E
:101630000160016801F010010591016841F00401A9
:101640000160016801F004010591016841F0800129
:101650000160016801F080010591016841F001011C
:101660000160016801F001010591016841F0080184
:1016700001600068DFF8A88000F0080048F2C0357B
:101680000590002229464046FEF79FFFDFF8949020
:101690004EF20F06002231464846FEF796FFDFF86D
:1016A00088A04FF44077002239465046FEF78DFF60
:1016B0007F20CDE9000469461C480294FEF7A8FE8D
:1016C00046F20C00CDE90004694640460294FEF75C
:1016D0009FFE00950125CDE90154694640460394DB
:1016E000FEF796FE4FF48360CDE90004694650464C
:1016F0000294FEF78DFE0096CDE9015469464846F6
:101700000394FEF785FE0097CDE9015469465046E3
:101710000394FEF77DFE06B0BDE8F0873038024046
:1017200000080240000C024000000240001002408D
:1017300010B58EB000240794089409940A940B9471
:101740001C2168460C94FEF7E5FD1D484FF08041D2
:10175000016042F27F51C0E901142321C0E9031462
:101760008461FFF78AFA08B1FEF72CFE4FF480502F
:10177000079007A91248FFF719FB08B1FEF722FEF0
:101780000F48FFF75EFC08B1FEF71CFE0B940BA997
:101790000B480C94FFF750FA08B1FEF713FE322005
:1017A000CDE9004002940022694605480494FFF701
:1017B0001CFC002801D0FEF705FE0EB010BD000095
:1017C000E002002010B586B0002417480094019470
:1017D00002940394049413490594016042F27F51EA
:1017E000C0E901146321C0E903148461FFF745FADD
:1017F00008B1FEF7E7FD4FF48050009069460A48B3
:10180000FFF7D4FA08B1FEF7DDFD049404A90648F9
:101810000594FFF711FA002801D0FEF7D3FD06B0BA
:1018200010BD000000040040200300200C4810B54B
:101830000A4901604FF416514160002181600C2279
:10184000C160C0E904128161C161FFF7D9FC0028C1
:1018500003D0BDE81040FEF7B5BD10BD0044004008
:1018600060030020FEE77047012204490448FFF7A7
:1018700035FD012000F01FFFFBE700001A000020EB
:1018800060030020054C6421606800F067FF00F0F1
:1018900019FC012000F00FFFF5E700000000002018
:1018A000074C207808B1FFF7D1FD607808B1FFF749
:1018B00009FEFFF743FE0A2000F0FDFEF1E70000FD
:1018C0000000002010B5FEF78BFE02F02BF8012877
:1018D00003D0BDE8104001F0D9BC10BD30B593B0C5
:1018E00030216846FEF716FD14210CA8FEF712FD04
:1018F00019480025016841F080510160006800F03E
:10190000805011901548016841F4804101600068E1
:10191000022400F4804011900120039010200490D4
:10192000009406940820CDE907506020CDE9090411
:1019300004200B906846FEF7DBFF0CA90F2081E81E
:1019400031004FF4A0500F90E002109003210CA83A
:10195000FEF7E4FE13B030BD403802400070004096
:101960001048016841F4700101600F48016841F0BE
:10197000010101600C4A00210832116002680B4B22
:101980001A400260031D0A4A1A60026822F480228B
:10199000026005480C300160024958068039086031
:1019A0007047000088ED00E000380240FFFFF6FEBF
:1019B000103000240148FFF765BA0000E002002063
:1019C0000148FFF75FBA000020030020F0B502686D
:1019D000254C264D264E274F274B4FF0804CA042DA
:1019E00009D0604507D0A84205D0B04203D0B84224
:1019F00001D0984204D122F0700E4A6842EA0E02E9
:101A0000A0421BD0604519D0A84217D0B04215D0D3
:101A1000B84213D0984211D0184DA8420ED0184D9C
:101A2000A8420BD0174DA84208D0174DA84205D0A8
:101A3000164DA84202D0164DA84203D122F440759B
:101A4000CA682A434D6922F080022A4302608A68EC
:101A5000C2620A688262A04201D0984201D109693B
:101A6000016301214161F0BD00000140000400401C
:101A700000080040000C004000040140004001400C
:101A8000004401400048014000180040001C004094
:101A90000020004010B5846842EA032224F47F4409
:101AA0000A432243826010BD826822F070020A431A
:101AB00042F0070181607047F0B5026A22F001022E
:101AC0000262036A42688469124E24F073050C684E
:101AD0002C4323F002058B682B430D4DA84201D007
:101AE000B04205D123F00807CB683B4323F0040341
:101AF000A84201D0B04205D14D6922F4407215438D
:101B00008A692A4342608461496841630362F0BD87
:101B10000000014000040140F0B5026A22F010020A
:101B20000262026A436884690D6824F4E64444EA68
:101B300005248D6822F0200242EA05120F4D104E56
:101B4000A84201D0B04206D1CF6822F0800242EA1A
:101B5000071222F04002A84201D0B04207D14D69DD
:101B600023F4406343EA85038D6943EA85034360B8
:101B70008461496881630262F0BD00000000014099
:101B800000040140F0B5026A22F480720262026A27
:101B90004368C46922F4007224F073050C68124E85
:101BA0002C438D6842EA05220E4DA84201D0B04276
:101BB00006D1CF6822F4006242EA072222F4806252
:101BC000A84201D0B04207D14D6923F4405343EA03
:101BD00005138D6943EA05134360C4614968C16315
:101BE0000262F0BD000001400004014030B5026A0D
:101BF00022F480520262046A4268C3690D6823F4C9
:101C0000E64343EA05238D6824F4005444EA05348E
:101C1000084DA84202D0084DA84204D14D6922F4D3
:101C2000804242EA85124260C361496801640462ED
:101C300030BD0000000001400004014010B5036AFF
:101C4000046A24F001040462846924F0F00444EA84
:101C5000021423F00A020A438461026210BD10B527
:101C6000036A23F0100303628369046A23F4704358
:101C700043EA023224F0A00343EA011182610162C7
:101C800010BD10B5806B0021C185C184FFF72FFA0C
:101C900010BD0168CA6822F49072CA6001684A697E
:101CA00022F001024A61202180F83A10704710B5F5
:101CB00090F83A10222901D0022010BD8168B1F5B8
:101CC000805F11D00169002901681FD0496801F0C7
:101CD0007F03816A4A1C82620B70C18D491E090410
:101CE000090CC18518D02BE00269816A002A0268BC
:101CF000526805D0D2B20A80816A491C8162ECE741
:101D0000C2F308020A80816A891CF7E74A68816A7F
:101D10004B1C83620A70E0E70168CA6822F0200267
:101D2000CA600168CA6822F48072CA6001684A69A0
:101D300022F001024A61202180F83A10FFF7F8FAF8
:101D4000002010BD2DE9F041044600680169E268F9
:101D500021F44051114301612169A068E2690843FF
:101D60006169114322680843D16849F20C639943C1
:101D70000143D16020684169A26921F44071114397
:101D80004161E2696425B2F5004F9748974922689E
:101D90004FF032083FD08A4201D082427CD1FEF718
:101DA00065FD00EBC00101EB001061688900B0FB2C
:101DB000F1F6FEF75BFD00EBC00101EB001061687E
:101DC0008900B0FBF1F0B0FBF5F06FF0180148436B
:101DD00006EB800108EB0110B0FBF5F000F0F00617
:101DE000FEF744FD00EBC00101EB001061688900C3
:101DF000B0FBF1F0B0FBF5F006EB0016FEF736FD98
:101E000000EBC00101EB001061688900B0FBF1F745
:101E1000FEF72CFDD2E08A4201D082423DD1FEF78E
:101E200025FD00EBC00101EB001061684900B0FB2B
:101E3000F1F0B0FBF5F00601FEF718FD00EBC00174
:101E400001EB001061684900B0FBF1F7FEF70EFDF1
:101E500000EBC00101EB001061684900B0FBF1F03C
:101E6000B0FBF5F06FF01801484307EB800108EB79
:101E7000C100B0FBF5F000F0F80006EB4006FEF7FD
:101E8000F5FC00EBC00101EB001061684900B0FBFC
:101E9000F1F7FEF7EBFC3CE055E0FEF7D7FC00EB7A
:101EA000C00101EB001061684900B0FBF1F0B0FB2C
:101EB000F5F00601FEF7CAFC00EBC00101EB0010D3
:101EC00061684900B0FBF1F7FEF7C0FC00EBC00110
:101ED00001EB001061684900B0FBF1F0B0FBF5F0D8
:101EE0006FF01801484307EB800108EBC100B0FB1D
:101EF000F5F000F0F80006EB4006FEF7A7FC00EB5B
:101F0000C00101EB001061684900B0FBF1F7FEF77A
:101F10009DFC00EBC00101EB001061684900B0FBC3
:101F2000F1F0B0FBF5F06FF01801484307EB8001CA
:101F300008EBC100B0FBF5F000F007002168304469
:101F40008860BDE8F081FEF781FC00EBC00101EB89
:101F5000001061688900B0FBF1F6FEF777FC00EB3A
:101F6000C00101EB001061688900B0FBF1F0B0FB2B
:101F7000F5F06FF01801484306EB800108EB011003
:101F8000B0FBF5F000F0F006FEF760FC00EBC001DE
:101F900001EB001061688900B0FBF1F0B0FBF5F0D7
:101FA00006EB0016FEF752FC00EBC00101EB00103F
:101FB00061688900B0FBF1F7FEF748FC00EBC00157
:101FC00001EB001061688900B0FBF1F0B0FBF5F0A7
:101FD0006FF01801484307EB800108EB0110B0FBDC
:101FE000F5F000F00F00A9E70014014000100140D7
:101FF00090F83910212901D0022070478168B1F58D
:10200000805F016A0BD04A1C026202680978516045
:10201000C18C491E0904090CC1840ED017E009883F
:102020000268C1F30801516001690029016A02D008
:10203000491C0162ECE7891CFBE70168CA6822F0D1
:102040008002CA600068C16841F04001C1600020A0
:1020500070472DE9F041984617460E460446069D06
:102060001DE0681C1BD02DB1FEF7B4FAA0EB0800F0
:10207000A84214D92068C16821F4D071C1602068D9
:10208000416921F001014161202084F8390084F880
:102090003A00002084F838000320BDE8F081206871
:1020A000006836EA000004D00020B842D9D00020F1
:1020B000F3E70120F9E700000148FFF719B8000035
:1020C000600300202DE9F04FFE488BB00178012914
:1020D0007DD1FDA16E4609680891FCA109680991AE
:1020E00045880020FA4903E00A5C3254401CC0B223
:1020F000A842F9D39DF800709DF80180F548FEF7DD
:1021000007FE00245A2F02D0042209A906E029461E
:102110006846FEF73DF928B1042208A9EE4800F010
:1021200077FAA4E10220ED498027DFF8B4A3DFF8B5
:10213000B4B3DFF8B493B8F1070F7CD2DFE808F04E
:102140000410FEFDFCFBFA00681E81B26846FEF733
:102150001FF971192A4601F8010C8DF802404DE172
:1021600008208DF80200C6028DF8034031464D4626
:102170004846FEF725FA012805D19DF8030040F0F6
:1021800080008DF8030031462846FEF719FA28B979
:102190009DF8030000F07F008DF803004FF4005617
:1021A00031462846FEF70CFA012805D19DF80300B8
:1021B00040F008008DF803003146A9462846FEF796
:1021C000FFF938B99DF8030000F0F70000E056E190
:1021D0008DF80300C54D4FF4007631462846FEF7D2
:1021E000EFF9012805D19DF8030040F001008DF8BA
:1021F000030031462846FEF7E3F928B99DF80300AD
:1022000000F0FE008DF80300B94E8DF80440402127
:102210003046FEF7D5F9012805D19DF8040040F0BD
:1022200080008DF804004FF400512846FEF7C8F9ED
:10223000012807D100E017E19DF8040040F00800F4
:102240008DF804004021B0463046FEF7B9F928B9B0
:102250009DF8040000F07F008DF804004FF4005159
:102260002846FEF7ADF928B99DF8040000F0F70004
:102270008DF8040004212846FEF7A2F9012805D1B3
:102280009DF8040040F002008DF804000421284667
:10229000FEF796F928B99DF8040000F0FD008DF8CE
:1022A0000400944D08212846FEF78AF9012805D13B
:1022B0009DF8040040F020008DF804000821284615
:1022C000FEF77EF928B99DF8040000F0DF008DF8D4
:1022D00004008DF805409AF800002646012801D038
:1022E00018B104E08DF8057001E08DF805609BF8E9
:1022F0000000012801D028B10AE09DF8050040F057
:10230000080003E09DF8050000F0F7008DF80500D7
:10231000102145464046FEF753F9012805D19DF8A6
:10232000050040F040008DF8050010212846FEF71A
:1023300047F904E048E1F4E0B0E0A6E063E028B942
:102340009DF8050000F0BF008DF80500202128460B
:10235000FEF736F9012805D19DF8050040F004008C
:102360008DF8050020212846FEF72AF928B99DF8A6
:10237000050000F0FB008DF8050002214D4648469F
:10238000FEF71EF9012805D19DF8050040F0200058
:102390008DF8050002212846FEF712F928B99DF8AC
:1023A000050000F0DF008DF8050001212846FEF74A
:1023B00007F9012805D19DF8050040F002008DF8CD
:1023C000050001212846FEF7FBF828B99DF8050015
:1023D00000F0FD008DF8050063208DF808608DF891
:1023E00006708DF809008DF807008DF80A600B2142
:1023F0006846FDF7CDFF8DF80B000C226946364884
:1024000000F006F930E00C708DF8020088468DF877
:1024100003708DF8054029466846FDF7B9FF7055F1
:102420006F1C4FF6FF79BAB24B4669462A48FEF751
:10243000ADFF322000F03FF9072088F800408DF80A
:1024400004000A2802D88DF8054002E001208DF82A
:10245000050029466846FDF79BFF7055BAB24B460A
:1024600069461D48FEF792FF1A48FEF774FC1548AE
:102470004FF40061047044801548FDF74BFF0BB02A
:102480000120BDE8F04F00F016B90C7003208DF864
:1024900002008DF803708DF80540ACE00C708DF8EB
:1024A00002009DF80300000608D5012251034846AA
:1024B000FEF78BF89DF80300000620D400224FF4AD
:1024C000005119E0160000205AFF00365AEE007441
:1024D000A0030020E0020020600300201400002080
:1024E0000000002001000020000C02400008024013
:1024F00000100240000002404846FEF766F89DF8D2
:102500000300000708D5012291034846FEF75DF855
:102510009DF8030000076CD400224FF48041484628
:1025200065E08DF802009DF80300010611D48AF8D9
:102530000040400608D5012202214846FEF745F832
:102540009DF80300400604D4002202214846FEF70D
:102550003CF89DF80300010711D48BF800404007B8
:1025600008D5012211464846FEF72FF89DF80300D2
:10257000400704D4002201214846FEF726F89DF8C2
:10258000030000060DD5002202214F464846FEF703
:102590001CF8002201213846FEF717F801208AF8BE
:1025A00000009DF80300000723D5002202214F46BA
:1025B0004846FEF70AF8002201213846FEF705F8E2
:1025C00001208BF8000014E00C708DF802009DF8DB
:1025D0000300012804D1410201220C48FDF7F5FF58
:1025E0009DF8030028B900224FF400710748FDF759
:1025F000ECFF8DF8044029466846FDF7C9FE70558A
:102600006D1CAAB24FF6FF732AE7000000080240D3
:1026100010B5094C0748236823F00203236092B2E7
:102620004FF6FF73FEF7B2FE206840F00200206014
:1026300010BD0000600300200C440040FEE70907C5
:10264000090E002804DB00F1E02080F80014704738
:1026500000F00F0000F1E02080F8141D704702E048
:1026600008C8121F08C1002AFAD17047704700201D
:1026700001E001C1121F002AFBD17047EFF3058072
:10268000002800D001207047FDF7B2FFFFF726F9C0
:10269000FEF7C2FFFFF74CF8FFF794F8FFF7C6F814
:1026A000FEF788FF00F00EF8FEE7014600208429BF
:1026B00000D0C81C704710B500B9012000F060FCC4
:1026C000002010BD10B500F0FBFC002010BD38B597
:1026D00043684BB1012909D1032000220090114623
:1026E000012000F00DFE38BD012901D0002038BDC9
:1026F00003220021012000F0DFFD040004D00023AC
:102700001A46194600F074FE204638BD38B500243C
:1027100005460094FFF7B2FF90B16946284600F0E5
:1027200017FF012801D0FF2038BD009888B10A4961
:102730004FF080500860BFF34F8FBFF36F8F08E0FA
:1027400000231A461946284600F052FE012800D000
:10275000FF24204638BD000004ED00E038B5050038
:102760004FF0000000900FD00024481C0ED001B1A3
:102770000C46FFF783FFB8B16A460021284600F0F7
:1027800035FF012816D104E0802038BD4FF0FF341A
:10279000EFE7009880B109494FF080500860BFF31F
:1027A0004F8FBFF36F8F07E02146284600F06CFF84
:1027B000012801D0FF2038BD002038BD04ED00E025
:1027C0007FB50D4604464169B0F9080081B1A169A1
:1027D00071B1FFF76AFFD4E905128DE80700D4E96B
:1027E00000102B46226901F072F8039004B070BD0E
:1027F000FFF75BFF03A9CDE90001208A2B4682B2D7
:10280000D4E9001001F036F8012801D00020EDE7EE
:102810000398EBE72DE9F041184C0F460546666931
:102820002068001D00F0BEFA38B9206890F82C101E
:1028300001208840A1698143A161681C07D137B19B
:102840002168BDE8F0410E48091D00F0EFBA20688C
:102850003544B5424560216805D2A068BDE8F04125
:10286000091D00F0CBBA6068091D00F0C7FA206BA3
:10287000854200D22563BDE8F08100002C000020D5
:102880007C0C00202DE9F041054600F0DBFA2E4CCF
:102890002069401C206120682C4F10B1E06940B3D2
:1028A0002DE025602069012829D1002606EB86004D
:1028B00007EB800000F094FA761C072EF6D323482D
:1028C0008C3000F08DFA2148A03000F089FA1F48C2
:1028D000B43000F085FA1D48C83000F081FA1B487A
:1028E000DC3000F07DFA19488C3060601430A06054
:1028F00005E02068E96AC06A884200D82560E06A7D
:10290000401CE062E96A0120A26988401043A0618E
:1029100001EB810007EB8000291D00F087FA00F031
:10292000B1FAE06900280CD02068E96AC06A8842E0
:1029300007D207494FF080500860BFF34F8FBFF3B5
:102940006F8FBDE8F08100002C000020A00B00205C
:1029500004ED00E030B4026C0B46002A0BD0C168D5
:102960001144C1604468A14201D30168C16030BC18
:102970001846FDF7B6BC30BC70472DE9F041856BB9
:10298000174604460026026C82B1C7B1E068FDF725
:10299000A8FCE168206C091AE1602268914202D229
:1029A0006168081AE060022F16D017E02068A8B905
:1029B000606801F029F80646002060600EE0A0681B
:1029C000FDF78FFC216CA0680844A0606168884214
:1029D00004D32068A06001E005B16D1E6D1CA563E5
:1029E0003046BDE8F08110B5044690F8510058B16A
:1029F00001280CD002280FD0502080F31188BFF39B
:102A00004F8FBFF36F8FFEE7206B00F04FFA204629
:102A1000BDE8104000F04ABA10BD000010484FF465
:102A20007051420706D0C01D0D4920F00700411A21
:102A3000C1F570510B4A00230144C2E90003083973
:102A4000103A21F0070111604B600B600B1AC0E9CE
:102A5000001393604FF000405360D0607047000057
:102A6000900C002078000020144E154CA6F1C807E9
:102A70004FF08058DFF84C9012E000BF00F0E2F910
:102A8000F068C568281D00F08DF92069401E20619E
:102A9000E068401EE06000F0F5F92846FFF7A3FF6C
:102AA000E0680028EAD138680128F9D9C9F800801F
:102AB000BFF34F8FBFF36F8FF2E70000680C002069
:102AC0002C00002004ED00E00346009829B10260CC
:102AD000C0E90F31012100F047BC0060F8E72DE9A3
:102AE000F0479A46DDE9098481466FF00303206BC5
:102AF00003EB82021044089D20F00706700707D000
:102B0000502080F31188BFF34F8FBFF36F8FFEE724
:102B100023180A5C83F834200A5C12B1401C102888
:102B2000F6D3002784F84370072D00D30625E5620D
:102B3000C4E91157201D00F05EF904F1180000F0FF
:102B40005AF92461C5F107006462A061E76484F862
:102B5000507052464946304600F00EF92060B8F1F8
:102B6000000F01D0C8F80040BDE8F08730B511492A
:102B700000E011460A688242FBD34B685C1884422D
:102B800003D1406818444860084643681C189442C2
:102B900009D1084C103C2468A24209D052681A445A
:102BA00042600A6812680260814200D0086030BD4D
:102BB0000460F9E77800002010B5044600F042F9FF
:102BC000A06B28B15FF0000400F05CF9204610BD56
:102BD0000124F9E706484168096829B14168C968D4
:102BE000C9684968016370474FF0FF31FAE7000098
:102BF0002C00002008484068401C4FF0500080F333
:102C0000118804D0BFF34F8FBFF36F8FFEE7BFF380
:102C10004F8FBFF36F8FFEE7800000202DE9F0415A
:102C2000044600F00FF994F9455004F1240609E038
:102C3000606A48B1304600F07DFF08B100F0CEF97F
:102C40006D1E6DB2002DF3DC4FF0FF3684F8456049
:102C500000F018F900F0F6F894F9445004F1100768
:102C600009E0206948B1384600F064FF08B100F07F
:102C7000B5F96D1E6DB2002DF3DC84F84460BDE83B
:102C8000F04100F0FFB800002DE9F04105460027B3
:102C900000F04CFA314E306808B9FFF7BFFEF0681B
:102CA00005424BD1C5B3083568070ED005F00700C3
:102CB000C0F108000544680707D0502080F3118850
:102CC000BFF34F8FBFF36F8FFEE72DB37068854260
:102CD00034D82248103001460C6801E020460C46EA
:102CE0006168A94202D221680029F7D131688C427B
:102CF00024D007682168016060680837411B1029EB
:102D00000FD96019420708D0502080F31188BFF313
:102D10004F8FBFF36F8FFEE710E041606560FFF7F4
:102D200025FF61687068401A7060B268904200D2F6
:102D3000B060F06801430020C4E9000100F034FFF6
:102D4000780707D0502080F31188BFF34F8FBFF36F
:102D50006F8FFEE73846BDE8F08100006800002074
:102D60000449086818B10868826C521C82640868BB
:102D7000704700002C00002010B5031F4FF0807436
:102D80001C601B1F21F001011960191F044B0B600F
:102D900014390A60091F6FF0020244380A6010BD3E
:102DA000F52B0008D0E9013201699A60D0E90123CE
:102DB0005A604A68824201D182684A6000220261F8
:102DC0000868401E0860086870470000034B0360F5
:102DD00003F1540008608020106070478C000020D0
:102DE00000F108014FF0FF32C0E90112C16001613A
:102DF00000210160704700210161704730B50B6808
:102E00005A1C02D000F1080202E0026904E02246E6
:102E1000546825689D42FAD953684B6099608A606E
:102E2000516008610168491C016030BD42684A6018
:102E300093688B6093685960916008610168491CD0
:102E400001607047502080F31188BFF34F8FBFF3AC
:102E50006F8F0A494868401C486001280CD1084817
:102E6000006810F0FF0F07D0502080F31188BFF3E7
:102E70004F8FBFF36F8FFEE7704700008000002088
:102E800004ED00E00849486828B1401E486001D1BF
:102E900080F311887047502080F31188BFF34F8F63
:102EA000BFF36F8FFEE700008000002070B50028A0
:102EB00027D0144DA0F108046168E868014207D1E9
:102EC000502080F31188BFF34F8FBFF36F8FFEE761
:102ED00022683AB1502080F31188BFF34F8FBFF3BF
:102EE0006F8FFEE78143616000F020F960686968D8
:102EF000084468602046FFF739FEBDE8704000F0E6
:102F000053BE70BD680000204FF0E0200021016139
:102F1000816105494FF47A720968B1FBF2F1491EEB
:102F200041610721016170472800002010B5FDF7BD
:102F300091F9114910280ED300F1E02090F8F00328
:102F40000A78904207D2502080F31188BFF34F8F48
:102F5000BFF36F8FFEE709480068896800F4E060FE
:102F6000884207D9502080F31188BFF34F8FBFF3F9
:102F70006F8FFEE710BD0000800000200CED00E028
:102F800010B5020014D00F48806B38B1502080F388
:102F90001188BFF34F8FBFF36F8FFEE700F0C6F8C5
:102FA00000211046FFF736FC00F0FEFD002807D197
:102FB00005494FF080500860BFF34F8FBFF36F8F0C
:102FC00010BD00002C00002004ED00E002498A6AD8
:102FD00002604969416070472C00002001490120CE
:102FE000486270472C00002010B50C4650B10949CA
:102FF00009681831FFF702FF2046BDE810400121A3
:10300000FFF708BC502080F31188BFF34F8FBFF348
:103010006F8FFEE72C00002070B504004BD0A26C2F
:10302000A2B1606C884200D30146E06A884242D077
:10303000012A40D1204D2A6894420FD1502080F3BC
:103040001188BFF34F8FBFF36F8FFEE7502080F3DF
:103050001188BFF34F8FBFF36F8FFEE7E162A26964
:10306000002A02DBC1F10701A161144E00EB8000D0
:10307000616906EB800081421DD1201DFFF792FEA1
:10308000012150B9E06A00EB800256F8222022B9F3
:10309000AA6901FA00F08243AA61E06AAA69814044
:1030A0001143A96100EB800006EB8000211DBDE803
:1030B0007040FFF7BBBE70BD2C000020A00B0020AD
:1030C00010B586B00024039405AA04A903A80494AB
:1030D000FFF77CFEDDE903010094CDE90110002338
:1030E0000EA11048059A00F0F2FB0F490028486332
:1030F00011D0502080F31188BFF34F8FBFF36F8F33
:103100004FF0FF3008630120C8614C6106B0BDE894
:10311000104000F041B806B010BD000049444C45D5
:1031200000000000692A00082C0000200248816B82
:10313000491C8163704700002C0000201448816BFB
:1031400011B1012141627047002141628169B1FAE8
:1031500081F1C1F11F0101EB81020E4951F82230CA
:103160006BB101EB820101F108034A6852684A60C1
:103170009A4201D152684A60D1680160704750207C
:1031800080F31188BFF34F8FBFF36F8FFEE700000E
:103190002C000020A00B00201CB537480168374ADE
:1031A000914207D1502080F31188BFF34F8FBFF3B6
:1031B0006F8FFEE700683149491E884207D15020D1
:1031C00080F31188BFF34F8FBFF36F8FFEE72C4959
:1031D00008780190FF20087008788DF800009DF8AD
:1031E00000009DF8002000F0F000904207D0502031
:1031F00080F31188BFF34F8FBFF36F8FFEE79DF809
:103200000000204B00F0500018700720986005E087
:103210009DF8002052008DF80020401E9DF80020EF
:103220001206F5D49860032807D0502080F3118847
:10323000BFF34F8FBFF36F8FFEE74FF4407098607E
:10324000019808700C482030016841F47001016059
:10325000016841F070410160FFF756FE00205860A0
:10326000FCF7C0FF0848016841F040410160FCF7ED
:10327000A5FF00201CBD000000ED00E071C20F4161
:1032800000E400E08000002034EF00E010B55020A2
:1032900080F31188BFF34F8FBFF36F8F00F050FBA7
:1032A00018B104494FF080500860002080F3118865
:1032B00010BD000004ED00E0F8B517460E4605000D
:1032C00014D0DEB105FB06F04830FFF7DDFC04004A
:1032D0000AD0002084F8460004F148023B463146FB
:1032E00028460094FFF7F0FB2046F8BD502080F3FD
:1032F0001188BFF34F8FBFF36F8FFEE70020E3E726
:1033000038B5049D18B153B1CAB181B120E0502045
:1033100080F31188BFF34F8FBFF36F8FFEE750200C
:1033200080F31188BFF34F8FBFF36F8FFEE75020FC
:1033300080F31188BFF34F8FBFF36F8FFEE739B172
:10334000502080F31188BFF34F8FBFF36F8FFEE7DC
:1033500048241C46012384F846302B460094FFF78E
:10336000B3FB204638BD000070B50D46040025D0E3
:10337000FFF768FDD4E90F20216802FB00116160AE
:103380000021A1632168A1600A46D4E90F01401E13
:1033900000FB0121E16021464FF0FF3001F8440FAE
:1033A000487004F110008DB1FFF71AFD04F12400FC
:1033B000FFF716FDFFF766FD012070BD502080F37A
:1033C0001188BFF34F8FBFF36F8FFEE7216900298C
:1033D000F0D000F0AFFB0028ECD004494FF0805053
:1033E0000860BFF34F8FBFF36F8FE3E704ED00E09A
:1033F0002DE9FF4782B01D468A464FF000080400C1
:1034000003D0BAF1000F08D011E0502080F31188EA
:10341000BFF34F8FBFF36F8FFEE7206C38B15020A2
:1034200080F31188BFF34F8FBFF36F8FFEE7022D3C
:103430000AD1E06B012807D0502080F31188BFF338
:103440004F8FBFF36F8FFEE700F06CFA3F4F4FF0E6
:1034500000094FF0805648B9049838B1502080F3E5
:103460001188BFF34F8FBFF36F8FFEE7FFF7EAFCC2
:10347000A06BE16B884207D3022D05D00498D0B130
:10348000B8F1000F1AD01EE02A4651462046FFF739
:1034900074FA616A19B104F1240000F04BFB20B109
:1034A0003E60BFF34F8FBFF36F8FFFF7EBFC012040
:1034B00006B0BDE8F087FFF7E5FC22E06846FFF7BD
:1034C00085FD4FF00108FFF7DDFCFFF72FFEFFF74A
:1034D000B9FC94F94400401C01D184F8449094F95B
:1034E0004500401C01D184F84590FFF7CBFC04A9AE
:1034F000684600F085F930B12046FFF78FFB00F0F9
:1035000053FB0020D4E7FFF79DFCA06BE16B8842E2
:1035100013D1FFF7B7FC04F110000499FFF764FD25
:103520002046FFF77BFB00F03FFB00289ED13E606A
:10353000BFF34F8FBFF36F8F98E7FFF7A3FC2046D1
:10354000FFF76CFB00F030FB90E7000004ED00E0BB
:1035500070B50E46040009D0206C78B1502080F37D
:103560001188BFF34F8FBFF36F8FFEE7502080F3BA
:103570001188BFF34F8FBFF36F8FFEE7206848B904
:10358000606838B1502080F31188BFF34F8FBFF3CC
:103590006F8FFEE7FFF7CAFC5020EFF3118580F331
:1035A0001188BFF34F8FBFF36F8FA16BE06B884221
:1035B00018D994F94500491CA163411C04D0401C52
:1035C00084F8450001200EE0606A0028FAD004F17A
:1035D000240000F0AFFA0028F4D0002EF2D0012031
:1035E0003060EFE7002085F3118870BD2DE9F047CA
:1035F00090468946040003D0B9F1000F08D011E0CD
:10360000502080F31188BFF34F8FBFF36F8FFEE719
:10361000206C38B1502080F31188BFF34F8FBFF377
:103620006F8FFEE7FFF782FC5020EFF3118680F3E7
:103630001188BFF34F8FBFF36F8FA76BF7B194F96A
:10364000445049462046FFF785F97F1EA763681C52
:1036500004D06D1C84F84450012010E0206900283B
:10366000FAD004F1100000F065FA0028F4D0B8F1A7
:10367000000FF1D00121C8F80010EDE7002086F31B
:103680001188BDE8F08700002DE9F343002683B0E0
:103690000400354609D0206C78B1502080F31188A1
:1036A000BFF34F8FBFF36F8FFEE7502080F3118879
:1036B000BFF34F8FBFF36F8FFEE700F033F9DFF8F2
:1036C0003C814FF000094FF0805748B9049838B159
:1036D000502080F31188BFF34F8FBFF36F8FFEE749
:1036E000FFF7B0FBA06BC8B1401EA063206810B903
:1036F000FFF736FB6060206950B104F1100000F064
:1037000019FA28B1C8F80070BFF34F8FBFF36F8F5D
:10371000FFF7B8FB012005B0BDE8F083049808B1BD
:1037200066B10FE03DB1502080F31188BFF34F8F99
:10373000BFF36F8FFEE7FFF7A5FB5DE06846FFF77D
:1037400045FC0126FFF79EFBFFF7F0FCFFF77AFB35
:1037500094F94400401C01D184F8449094F9450048
:10376000401C01D184F84590FFF78CFB04A9684602
:1037700000F046F80028204612D0FFF74FFA00F07C
:1037800013FA2046FFF718FA0028A9D09DB3FFF7D7
:1037900059FB606A50B3206B0068C0F1070126E056
:1037A000FFF70AFAE0B1206838B9FFF74BFB606811
:1037B00000F076F90546FFF765FB04F12400049953
:1037C000FFF712FC2046FFF729FA00F0EDF9002878
:1037D00086D1C8F80070BFF34F8FBFF36F8F7FE7BC
:1037E0002046FFF71BFA00F0DFF979E70021606857
:1037F000FFF712FC9FE7FFE700208CE704ED00E0F5
:103800002DE9F0410C46050011D0C4B1FFF71AFBB9
:10381000174B5A696E682068911B471C17D02F6898
:103820009B6A9F4219D0964217D8012410E050207D
:1038300080F31188BFF34F8FBFF36F8FFEE75020E7
:1038400080F31188BFF34F8FBFF36F8FFEE7002423
:10385000FFF718FB2046BDE8F081884205D9401AE1
:1038600020602846FFF7B2FBF1E700202060DCE78C
:103870002C0000202DE9FF5F8346DDE90E87994685
:1038800016468A469000FFF7FFF905001CD0542029
:10389000FFF7FAF9040014D00020256384F85100E2
:1038A000CDE90240CDE900874B46324651465846A5
:1038B000FFF715F92046FEF7E5FF012004B0BDE84B
:1038C000F09F2846FFF7F2FA4FF0FF30F6E7F0B529
:1038D00085B0DDE90B640A9DA6B1DCB154270097E1
:1038E0002663022684F85160002604AFCDE9024623
:1038F000CDE90057FFF7F3F82046FEF7C3FF049821
:1039000005B0F0BD502080F31188BFF34F8FBFF397
:103910006F8FFEE7502080F31188BFF34F8FBFF306
:103920006F8FFEE70548C16919B1806B18B100209F
:103930007047012070470220704700002C000020D3
:103940002DE9F0412E4C0027A06B40B1206A401CAD
:103950002062606A00B101273846BDE8F0816669DF
:10396000761C666113D16068006838B1502080F31E
:103970001188BFF34F8FBFF36F8FFEE76068A168B8
:103980006160A060A06A401CA062FFF723F9206B71
:10399000DFF87080864209D36068006880B1606893
:1039A000C068C568686886420DD220632068C06A16
:1039B00000EB800158F821000128CAD90127C8E787
:1039C0004FF0FF30F1E7281DFFF7ECF9A86A18B1B6
:1039D00005F11800FFF7E6F9E86A0121A2698140C4
:1039E0001143A16100EB800108EB8100291DFFF765
:1039F0001DFAE86A2168C96A8842CDD30127CBE75E
:103A00002C000020A00B002070B504004FF0000136
:103A100040D0214D2868844207D0502080F311887F
:103A2000BFF34F8FBFF36F8FFEE7A06C38B1401E1E
:103A3000A064636CE26A9A422CD040B12AE0502024
:103A400080F31188BFF34F8FBFF36F8FFEE7201D08
:103A5000FFF7A8F9114A012150B9E06A00EB800391
:103A600052F8233023B9AB6901FA00F08343AB610C
:103A7000606CE062C0F10700A061E06AAB69814060
:103A80001943A96100EB800002EB8000211DFFF7C4
:103A9000CDF90121084670BD2C000020A00B0020AC
:103AA00070B504004FF0000038D0204DE16A2A685C
:103AB000D26A914233D2A069002804DB2868C06A28
:103AC000C0F10700A0611A4E01EB8101606906EBAD
:103AD000810188421ED1201DFFF764F9012150B9F0
:103AE000E06A00EB800256F8222022B9AA6901FAA6
:103AF00000F08243AA612868C06AE062AA69814036
:103B00001143A96100EB800006EB8000211DFFF747
:103B10008DF902E02868C06AE062012070BD616C26
:103B20002A68D26A9142F8D370BD00002C000020B0
:103B3000A00B00202DE9F041C068C468ACB104F1CD
:103B400018000746FFF72EF9154DA86B0126A0B106
:103B500039461448FFF76AF9E06A2968C96A884259
:103B60001CD901206E62BDE8F081502080F31188DD
:103B7000BFF34F8FBFF36F8FFEE7201DFFF712F9E2
:103B8000E16AAA6906FA01F01043A86101EB81001D
:103B90000449B43901EB8000211DDBE70020E2E796
:103BA0002C000020540C00202DE9F0472C4D00245F
:103BB0002746A86B38B1FFF745F9A86B401EA863EC
:103BC000A86B40B146E0502080F31188BFF34F8FBF
:103BD000BFF36F8FFEE72969224E0120D1B3A6F112
:103BE000B40980463068E8B1F068C46804F1180090
:103BF000FFF7D8F8201DFFF7D5F8E06AAA6908FAA0
:103C000000F11143A96100EB800109EB8100211D46
:103C1000FFF70CF9E06A2968C96A8842E2D3C5F85F
:103C20002480DFE70CB1FEF7D5FF2C6A44B146468D
:103C3000FFF786FE00B16E62641EF9D10020286293
:103C4000686A38B10849012738070860BFF34F8F09
:103C5000BFF36F8FFFF716F93846BDE8F087000015
:103C60002C000020540C002004ED00E0E83C00088B
:103C7000691800080000000000000000800000003B
:103C80000000000000000000D83C00088518000873
:103C900000000000000000008000000000000000A4
:103CA00000000000F43C0008A1180008000000001B
:103CB0000000000080000000000000000000000084
:103CC00000000000000000000102030406070809CC
:103CD00000000000010203045265637650726F63B6
:103CE00065735461736B000064656661756C745430
:103CF00061736B005761746572436F6E74726F6CA1
:103D000054617300243D0008000000208C00000076
:103D10005E260008B03D00088C000020044C000026
:103D20006E260008010100000000000000000000F5
:103D30000000000000000000000000000000000083
:103D40000100000010000000000000000024F4004A
:103D50000000000000000000000000000000000063
:103D60000000000000000000000000000000000053
:103D70000000000000000000000000000000000043
:103D80000000000000000000000000000000000033
:103D90000000000000000000000000000000000023
:103DA0000000000000000000AAAAAAAA000000006B
:040000050800018965
:00000001FF
