:020000040800F2
:10000000900400209D0100084B0D0008E30C00083F
:10001000490D0008A9020008ED12000800000000C8
:100020000000000000000000000000007D0D00083E
:10003000DF020008000000004D0D00087F0D0008E1
:10004000B7010008B7010008B7010008B7010008B0
:10005000B7010008B7010008B7010008B7010008A0
:10006000B7010008B7010008B7010008B701000890
:10007000B7010008B7010008B7010008B701000880
:10008000B7010008B7010008B7010008B701000870
:10009000B7010008B7010008B7010008B701000860
:1000A000B7010008B7010008B7010008B701000850
:1000B000B7010008B7010008B7010008B701000840
:1000C000B7010008B7010008B7010008B701000830
:1000D000B7010008B701000869110008B70100085E
:1000E000B7010008B7010008B7010008B701000810
:1000F000B7010008B7010008B7010008B701000800
:10010000B7010008B7010008B7010008B7010008EF
:10011000B7010008B7010008B7010008B7010008DF
:10012000B7010008B7010008B7010008B7010008CF
:10013000B7010008B7010008B7010008B7010008BF
:10014000B7010008B7010008B7010008B7010008AF
:10015000B7010008B7010008B7010008B70100089F
:10016000B7010008B7010008B7010008B70100088F
:10017000B7010008B7010008B7010008000000003F
:10018000B7010008B7010008DFF80CD000F07AF8DA
:100190000048004779130008900400200648804773
:1001A00006480047FEE7FEE7FEE7FEE7FEE7FEE75C
:1001B000FEE7FEE7FEE7FEE7050E000889010008FE
:1001C0002DE9F05F0546002092469B46884606468C
:1001D000814640241BE0284641464746224600F01F
:1001E00041F853465A46C01A914110D31146184659
:1001F000224600F028F82D1A67EB01084F462246E8
:100200000120002100F01FF817EB00094E41201ECD
:10021000A4F10104DFDC484631462A464346BDE8E6
:10022000F09FD2B201E000F8012B491EFBD27047CB
:100230000022F6E710B513460A4604461946FFF7B2
:10024000F0FF204610BD202A04DB203A00FA02F11C
:10025000002070479140C2F1200320FA03F31943B4
:1002600090407047202A04DB203A21FA02F0002156
:10027000704721FA02F3D040C2F1200291400843B6
:1002800019467047064C074D06E0E06840F0010350
:1002900094E8070098471034AC42F6D3FFF778FF94
:1002A000BC130008DC130008FEE7000070B5002254
:1002B00048F280354FF6FF740CE000BF10F8013BA8
:1002C00082EA03220823160400D56A4004EA4202A7
:1002D0005B1EF8D1491E89B2F0D2100A70BD70477A
:1002E0007047000070B5044600F0E6F80546601C53
:1002F00002D004480078044400F0DEF8401BA0421D
:10030000FAD370BD000000202DE9F84FDFF87CB172
:1003100000224FF001084FF0030A4FF00F090BF1D4
:10032000040E00BF0B6808FA02F42340A3426ED10A
:100330004D68022D01D0122D0ED1D50800EB850C91
:10034000DCF820505607F70E09FA07F6B5430E6998
:10035000BE402E43CCF82060066855000F790AFA9B
:1003600005FC07F0030726EA0C06AF403743076099
:100370004E68012E05D0022E03D0112E01D0122E70
:100380000ED18668CF6826EA0C06AF4037438760F7
:100390004668A6430C79C4F3001494403443446087
:1003A000C6688C6826EA0C06AC403443C4604C68CE
:1003B000E40065D5364C256845F480452560246801
:1003C00022F0030504F480440094324C2E19D6F830
:1003D000084895072F0F09FA07F5AC432E4DA842A0
:1003E00001D1002524E02D4DA84201D101251FE0B7
:1003F0002B4DA84201D102251AE02A4DA84201D175
:10040000032515E0284DA84202D1042510E037E06D
:10041000264DA84201D105250AE0254DA84201D16B
:10042000062505E0234DA84201D1072500E0082557
:10043000BD402543C6F80858DBF800405D464E68CD
:100440009C43F60300D51C432C60DEF80040754643
:100450004E689C43B60300D51C432C600B4D0835F9
:100460002C684E689C43F60200D51C432C60074D57
:100470000C352C684E689C43B60200D51C432C609A
:10048000521C102AFFF44EAFBDE8F88F003C01402B
:1004900044380240003001400000024000040240A5
:1004A00000080240000C024000100240001402400C
:1004B00000180240001C024001488068704700009C
:1004C0000000002002488168027811448160704772
:1004D000000000200B4810B5016841F40071016074
:1004E000016841F480610160016841F4807101603C
:1004F000032000F06FF8002000F006F800F024F868
:10050000002010BD003C024070B50D4D04464FF474
:100510007A712878B1FBF0F00A490968B1FBF0F074
:1005200000F0E0FA48B9102C07D200222146501EF4
:1005300000F030F800206C6070BD012070BD00003C
:10054000000000200C0000200A4808B5016841F4B2
:1005500080410160006800F4804000900548001F61
:10056000016841F080510160006800F08050009007
:1005700008BD000044380240002809DB00F01F02DB
:10058000012191404009800000F1E020C0F80011F5
:1005900070470000F0B40E4B1B680C46C3F30223F7
:1005A000C3F10705042D00D90425191D072901D21F
:1005B000002300E0DB1E012606FA05F1491E21405A
:1005C00099409E40761E16403143F0BC00F098BE24
:1005D0000CED00E0064900F0070208684FF6FF0343
:1005E000184040EA0220034A1043086070470000A8
:1005F0000CED00E00000FA052DE9F0470E4605007D
:1006000065D0DFF81481D8F80000F7B200F00F00D1
:10061000B04207D288F80070D8F8000000F00F0050
:10062000B04254D128683D4C810712D5400703D50C
:10063000206840F4E05020602878000703D5206847
:1006400040F4604020602068A96820F0F000084372
:1006500020602878C0072DD0304968680839012803
:1006600012D0022813D0032811D009688907002965
:100670002DDA216821F0030101432160FFF71CFFFF
:10068000814641F2883A0EE009688903EFE709687C
:100690008901ECE7FFF710FFA0EB0901514502D9F2
:1006A0000320BDE8F0872068696800F00C00B0EB1B
:1006B000810FEFD1D8F80010404601F00F01B14290
:1006C00007D90770006800F00F00B04201D0012088
:1006D000E7E72878400705D52068E96820F4E0506E
:1006E000084320602878000706D52068296920F48F
:1006F000604040EAC100206000F036F82168084AF6
:10070000C1F30311515CC840064908600020FFF79F
:10071000FBFE0020C5E70000003C02400838024014
:10072000A41300080C00002004480549006809686B
:10073000044AC1F38221515CC84070470C0000207C
:1007400008380240B41300080448054900680968E5
:10075000044AC1F34231515CC84070470C0000208C
:1007600008380240B4130008154810B5006810F0AE
:100770000C02144813D04110042A0FD0082A0ED1BD
:100780000F4C241F2268236802F03F025B0207D54A
:100790002068C0F38810A0FB010106E0084610BDE8
:1007A0002168C1F38811A1FB00010023FFF708FDB8
:1007B0002168C1F30141491C4900B0FBF1F010BDB3
:1007C000083802400024F4002DE9F84F050076D0E7
:1007D0002878DFF8F8B2BE4CC00749D0DBF800102B
:1007E0005846C1F38101012908D00068C0F3810097
:1007F00002280AD1201D0068400206D52068800327
:1008000036D568680028E2D032E06868B0F5803FED
:1008100010D0B0F5A02F206810D020F480302060D8
:10082000206820F4802020606868A0B1FFF744FEB3
:1008300006460CE0206840F48030F4E740F4802065
:100840002060F7E7FFF738FE801B642873D8206824
:100850008003F7D50CE0FFF72FFE064605E000BF4A
:10086000FFF72AFE801B6428F0D820688003F7D4A5
:100870002878DFF8608280074FF000093ED5DBF86A
:100880000010584611F00C0F09D00068C0F3810029
:1008900002280BD18D48001F0068400206D4206852
:1008A000800715D5E868012809D111E0E868B8B1DA
:1008B0000120C8F80000FFF7FFFD064605E002E151
:1008C000FFF7FAFD801B0228C0D820688007F7D503
:1008D0002068296920F0F80040EAC10020600DE09E
:1008E000C8F80090FFF7E8FD064604E0FFF7E4FDD6
:1008F000801B02281FD820688007F7D428780007BB
:1009000022D5724E744869696C3671B1012101605B
:10091000FFF7D2FD074604E0FFF7CEFDC01B02281B
:1009200009D830688007F7D50EE0C0F80090FFF7CF
:10093000C3FD074605E083E0FFF7BEFDC01B0228AC
:100940007ED830688007F7D42878400768D5DFF86C
:100950007CA100270AF1380ADAF80000C0000BD4A5
:10096000DAF8001041F08051CAF80010DAF80000FF
:10097000012700F080500090584E3068C00510D418
:10098000306840F480703060FFF796FD009005E01D
:10099000FFF792FD0099401A022851D83068C0052F
:1009A000F6D54A4EA868683601280FD00528306869
:1009B00010D020F001003060306820F0040030607A
:1009C000A868B8B1FFF778FD00900FE0306840F0FC
:1009D0000100F4E740F004003060F7E7FFF76CFD3A
:1009E0000099411A41F28830814264D8306880070A
:1009F000F4D50EE0FFF760FD009007E0FFF75CFD27
:100A00000099411A41F28830814254D830688007F9
:100A1000F4D42FB1DAF8001021F08051CAF8001098
:100A2000A869C0B3DBF80010C1F3810102294AD0E4
:100A30000228484607D0C8F86000FFF73DFD00E0F7
:100A400039E005463AE04746C8F86000FFF734FD54
:100A5000064604E0FFF730FD801B02282BD82068F3
:100A60008001F7D4D5E907010843A96A1C4A49085F
:100A700002EB01416A6A41EA8211084395F82C10A1
:100A800040EA01611148001F016001203866FFF74C
:100A900013FD054605E014E0FFF70EFD401B02289C
:100AA00009D820688001F7D50BE000BFFFF704FDEF
:100AB000401B022802D90320BDE8F88F206880017E
:100AC000F4D40020F8E70120F6E7000008380240DF
:100AD0000038024000004742800E4742007000404C
:100AE0000000FFFF10B5401EB0F1807F01D3012050
:100AF00010BD4FF0E02460610F21601700F000FC92
:100B00000020A06107202061002010BD70B5040006
:100B100004D094F83900002510B106E0012070BD22
:100B200084F83850204600F023F8242084F8390057
:100B30002068C16821F40051C160204600F08CF9A2
:100B40002068016921F4904101612068416921F028
:100B50002A0141612068C16841F40051C160E56328
:100B6000202084F8390084F83A00002070BD00008D
:100B700010B586B0044614216846FFF759FB1749A3
:100B80002068884228D11648016841F4003101608C
:100B9000006800F40030059011481038016841F0F9
:100BA000010101600068694600F0010005900C2019
:100BB0000090022001900120029003200390072062
:100BC00004900848FFF7A0FB002211462620FFF7FB
:100BD000E1FC2620FFF7D0FC06B010BD0044004029
:100BE00040380240000002400D4910B5884215D13E
:100BF000A1F10C008068017A00290FD1C188828898
:100C000091420BD2074A536804684A1CC28063545D
:100C1000C1888288914201D30021C18010BD0000AB
:100C20004C000020001001402DE9F843044690F8E4
:100C300039001F4616460D46202850D1A5B19EB159
:100C400094F8380001284AD0012084F838004FF089
:100C50000008C4F83C80212084F83900FFF72CFC00
:100C6000A6848146E68426E00120BDE8F883E08C76
:100C7000401EE084A0684B46B0F5805F4FF0000254
:100C80004FF080012046009703D000F03BFAE8B90E
:100C90000DE000F037FAC8B928882168C0F30800D1
:100CA0004860206908B16D1C05E0AD1C03E02168B7
:100CB00015F8010B4860E08C0028D8D14B46002283
:100CC00040212046009700F01DFA08B10320CCE730
:100CD000202084F8390084F838800020C5E70220FD
:100CE000C3E7FEE7094808B5016841F080010160EB
:100CF000016801F080010091016841F0010101608B
:100D0000006800F00100009008BD0000303802408B
:100D10000C4810B50A4901604FF41651416000219A
:100D200081600C22C160C0E904128161C161FFF7DA
:100D3000EDFE002803D0BDE81040FFF7D1BA10BD8A
:100D4000004400404C000020FEE770477047000060
:100D500010B520210848FFF76BFA074901F1200080
:100D60000160202181800021C18001720146BDE81F
:100D70001040022000F08EBA140000207047FFF7E8
:100D8000A1BB000030B593B030216846FFF750FAA0
:100D900014210CA8FFF74CFA18480025016841F00F
:100DA00080510160006800F0805011901448016883
:100DB00041F4804101600068022400F480401190F9
:100DC00001200090000401908001CDE9064008AAAE
:100DD0000420482182E813000B906846FFF7F4FCDA
:100DE0000CA90F2081E83100E0020F901090022141
:100DF0000CA8FFF701FC13B030BD000040380240E2
:100E0000007000401048016841F4700101600F4813
:100E1000016841F0010101600C4A002108321160B3
:100E200002680B4B1A400260031D0A4A1A600268EE
:100E300022F48022026005480C3001600249580605
:100E4000803908607047000088ED00E000380240FB
:100E5000FFFFF6FE103000242DE9F0410446006843
:100E60000169E26821F44051114301612169A068E0
:100E7000E26908436169114322680843D16849F275
:100E80000C6399430143D16020684169A26921F450
:100E9000407111434161E2696425B2F5004F974802
:100EA000974922684FF032083FD08A4201D08242EF
:100EB0007CD1FFF749FC00EBC00101EB0010616839
:100EC0008900B0FBF1F6FFF73FFC00EBC00101EB3E
:100ED000001061688900B0FBF1F0B0FBF5F06FF035
:100EE0001801484306EB800108EB0110B0FBF5F058
:100EF00000F0F006FFF728FC00EBC00101EB00104A
:100F000061688900B0FBF1F0B0FBF5F006EB00166C
:100F1000FFF71AFC00EBC00101EB001061688900CB
:100F2000B0FBF1F7FFF710FCD2E08A4201D0824219
:100F30003DD1FFF709FC00EBC00101EB0010616837
:100F40004900B0FBF1F0B0FBF5F00601FFF7FCFB48
:100F500000EBC00101EB001061684900B0FBF1F744
:100F6000FFF7F2FB00EBC00101EB001061684900E4
:100F7000B0FBF1F0B0FBF5F06FF01801484307EB60
:100F8000800108EBC100B0FBF5F000F0F80006EBC3
:100F90004006FFF7D9FB00EBC00101EB00106168D0
:100FA0004900B0FBF1F7FFF7CFFB3CE055E0FFF75E
:100FB000BBFB00EBC00101EB001061684900B0FB16
:100FC000F1F0B0FBF5F00601FFF7AEFB00EBC0015E
:100FD00001EB001061684900B0FBF1F7FFF7A4FBDB
:100FE00000EBC00101EB001061684900B0FBF1F0BB
:100FF000B0FBF5F06FF01801484307EB800108EBF8
:10100000C100B0FBF5F000F0F80006EB4006FFF77A
:101010008BFB00EBC00101EB001061684900B0FBE5
:10102000F1F7FFF781FB00EBC00101EB00106168F5
:101030004900B0FBF1F0B0FBF5F06FF01801484348
:1010400007EB800108EBC100B0FBF5F000F00700F2
:10105000216830448860BDE8F081FFF765FB00EB54
:10106000C00101EB001061688900B0FBF1F6FFF7E9
:101070005BFB00EBC00101EB001061688900B0FB75
:10108000F1F0B0FBF5F06FF01801484306EB80017A
:1010900008EB0110B0FBF5F000F0F006FFF744FBA1
:1010A00000EBC00101EB001061688900B0FBF1F0BA
:1010B000B0FBF5F006EB0016FFF736FB00EBC001C6
:1010C00001EB001061688900B0FBF1F7FFF72CFB22
:1010D00000EBC00101EB001061688900B0FBF1F08A
:1010E000B0FBF5F06FF01801484307EB800108EB07
:1010F0000110B0FBF5F000F00F00A9E7001401406B
:10110000001001402DE9F041984617460E4604466E
:10111000069D1DE0681C1BD02DB1FFF7CDF9A0EB9B
:101120000800A84214D92068C16821F4D071C160B8
:101130002068416921F001014161202084F83900D3
:1011400084F83A00002084F838000320BDE8F081DC
:101150002068006836EA000004D00020B842D9D0E8
:101160000020F3E70120F9E710B5064C206800687D
:10117000800606D52046FFF737FD21686FF0200076
:10118000086010BD4C000020F0B589B026A000F02A
:10119000AFF82649087A01283BD18C7900206D46AA
:1011A000096803E00A5C2A54401CC0B2A042F9D38B
:1011B0009DF800709DF801601DA000F099F85A2F6D
:1011C00024D11CA000F094F821466846FFF76EF881
:1011D00008B119A018E01BA000F08AF8072E15D25C
:1011E000DFE806F0140411191B1D1F00601E81B2F8
:1011F0006846FFF75BF8291901F8010C214668469B
:1012000000F036F802E010A000F072F8022000F0C2
:1012100035F809B0F0BD0EA0F6E70FA0F4E710A076
:10122000F2E711A0F0E70000610D0A003400002091
:10123000630D0A00640D0A00637263206572720D0B
:101240000A000000650D0A00307830310D0A0000F8
:10125000307830320D0A0000307830330D0A00004B
:10126000307830340D0A0000307830350D0A000037
:101270000A460146022000F01FB80000044900227F
:1012800051F82030DA8051F82000027270470000D7
:101290004000002010B54FF0FF33032803D8054A63
:1012A00052F820400CB1184610BD42F82010002022
:1012B00010BD00004000002010B5012802D0022817
:1012C00000D10848084C236823F00203236092B23F
:1012D0004FF6FF73FFF7A8FC206840F00200206083
:1012E00010BD00004C0000200C440040FEE7000050
:1012F000014A024900F023B86113000810000020E1
:101300000907090E002804DB00F1E02080F8001432
:10131000704700F00F0000F1E02080F8141D7047C6
:1013200002E008C8121F08C1002AFAD170477047AE
:10133000002001E001C1121F002AFBD170472DE9F6
:10134000F04116460F460446002503E03946B047F3
:10135000641C6D1C20780028F8D12846BDE8F08177
:1013600013B54FF6FF73012269460248FFF75CFC94
:1013700000981CBD4C000020FFF7ACF8FFF7E8FC1C
:101380006420FEF7AFFFFFF7FDFCFFF7ABFCFFF7B4
:10139000BFFC00BFFFF7F8FE01A0FFF7A9FFF9E7C8
:1013A000620D0A00000000000000000001020304BA
:1013B000060708090000000001020304DC1300080E
:1013C000000000201400000020130008F0130008A3
:1013D000140000207C04000030130008010000000D
:1013E00010000000000000000024F40000000000D5
:040000050800018965
:00000001FF
